:100000000C94AD030C94301E0C945D1E0C94CA2409
:100010000C94EE240C9412250C94D5030C94D50367
:100020000C94D5030C94D5030C94D5030C94D503F0
:100030000C94D5030C94D5030C94D5030C94D503E0
:100040000C948A1E0C94D5030C94D0200C9413218C
:100050000C94D5030C94D5030C94D5030C94D503C0
:100060000C94E82D0C94D503A119BB19DB19EF19D9
:10007000001A381A411A4C1A571A641A641A641A68
:10008000641A641A641A641A641A641A641A641A80
:10009000641A641A641A641A641A641A641A641A70
:1000A000641A641A641A641AA119B319BB19DB190A
:1000B000EF19001A141A1F1A2A1A084AD73B3BCE06
:1000C000016E84BCBFFDC12F3D6C74319ABD568357
:1000D0003DDA3D00C77F11BED9E4BB4C3E916BAA0F
:1000E000AABE000000803F05A84CCDB2D44EB9385E
:1000F00036A9020C50B9918688083CA6AAAA2ABE45
:10010000000000803F476569676965204E616E6F3A
:100110002025730023253034640024504D544B3384
:1001200031342C302C312C302C312C302C302C30E4
:100130002C302C302C302C302C302C302C302C30DF
:100140002C302C302C302C302A32380024504D5496
:100150004B3232302C313030302A31460024504D71
:10016000544B3331332C312A32450D0A0024504D83
:10017000544B3330312C322A32450D0A00253034AD
:100180006425303264253032642E6C6F6700232082
:100190004E4557204C4F470A2320666F726D61749D
:1001A0003D00312E302E32006E616E6F0A232064C6
:1001B00065616474696D653D6F6E0A0023206E6D24
:1001C0003D25732C747A3D25642C636E3D25732C7C
:1001D00063706D663D25642C73743D25642C7373C8
:1001E0003D25642C73683D25642C736D3D25640AA0
:1001F000002425732C253034642C253032642D25C1
:100200003032642D2530326454253032643A253042
:1002100032643A253032645A2C256C642C256C6487
:100220002C256C642C25632C25732C25632C2573BD
:100230002C25632C25732C25632C256C642C2564BC
:10024000002A302558002A255800253032646825B8
:100250003032646D002043504D004E6F20475053A4
:1002600000207553762F68002042712F6D32006B8D
:100270006D002D2D002075532F680043504D200038
:100280002042712F6D32004D783D0075532F68204C
:100290000044733D0075530057726F6E67206D6F99
:1002A0006465202100253032642F253032642025FA
:1002B0003032643A253032643A25303264002530D9
:1002C000346C642E2530346C64002530356C642E1B
:1002D0002530346C64004A504E00726561642025FC
:1002E0007320302025640000000007000201000098
:1002F00003040600000000000000000102040810D2
:10030000204080010204081020010204081020048B
:1003100004040404040404020202020202030303AC
:100320000303030000000023002600290000000052
:1003300000250028002B0000000000240027002AD0
:100340000000C20100010005000500030000E100FB
:100350000001000F000F000D0000960000020019C0
:10036000001A001700127A00000700200021001D6B
:1003700000807000000B00230023002000004B00D1
:10038000001400370037003400403800001E004BD6
:10039000004B00480080250000320072007200709F
:1003A00000C01200006E00E900E900E600600900EC
:1003B00000E500D801D801D501B0040000D301B494
:1003C00003B403B10358020000B403670767076270
:1003D000072C0100006707DD0EDD0EDA0E000000BD
:1003E00000003E5B4F5B3E3E6B4F6B3E1C3E7C3ED7
:1003F0001C183C7E3C181C577D571C1C5E7F5E1CE5
:1004000000183C1800FFE7C3E7FF0018241800FF9E
:10041000E7DBE7FF30483A060E2629792926407F98
:10042000050507407F05253F5A3CE73C5A7F3E1CA7
:100430001C08081C1C3E7F14227F22145F5F005F93
:100440005F06097F017F006689956A606060606071
:1004500094A2FFA29408047E040810207E201008B5
:10046000082A1C08081C2A08081E101010100C1E50
:100470000C1E0C30383E3830060E3E0E06000000D2
:10048000000000005F00000007000700147F147FD9
:1004900014242A7F2A1223130864623649562050F6
:1004A0000008070300001C2241000041221C002A12
:1004B0001C7F1C2A08083E080800807030000808CD
:1004C000080808000060600020100804023E51493E
:1004D000453E00427F400072494949462141494D0D
:1004E000331814127F1027454545393C4A49493194
:1004F00041211109073649494936464949291E0013
:1005000000140000004034000000081422411414BC
:10051000141414004122140802015909063E415DD9
:10052000594E7C1211127C7F494949363E41414166
:10053000227F4141413E7F494949417F09090901E3
:100540003E414151737F0808087F00417F410020F0
:1005500040413F017F081422417F404040407F02DC
:100560001C027F7F0408107F3E4141413E7F090904
:1005700009063E4151215E7F09192946264949490C
:100580003203017F01033F4040403F1F2040201FB6
:100590003F4038403F631408146303047804036148
:1005A00059494D43007F4141410204081020004158
:1005B00041417F04020102044040404040000307E3
:1005C000080020545478407F284444383844444438
:1005D00028384444287F385454541800087E0902AF
:1005E00018A4A49C787F0804047800447D4000206F
:1005F00040403D007F1028440000417F40007C04C3
:100600007804787C080404783844444438FC18247E
:10061000241818242418FC7C080404084854545452
:100620002404043F44243C4040207C1C2040201CE7
:100630003C4030403C44281028444C9090907C44EE
:1006400064544C440008364100000077000000412B
:10065000360800020102040200407A10F35A00A09A
:10066000724E18090010A5D4E80000E8764817007B
:1006700000E40B54020000CA9A3B000000E1F505BB
:10068000000080969800000040420F000000A08605
:1006900001000000102700000000E8030000000037
:1006A0006400000000000A000000000001000000DB
:1006B00000002C76D888DC674F0823DFC1DFAE59F5
:1006C000E1B1B796E5E3E453C63AE651997696E888
:1006D000E6C28426EB898C9B62ED407C6FFCEFBC0C
:1006E0009C9F40F2BAA56FA5F490055A2AF75C9337
:1006F0006B6CF9676DC11BFCE0E40D47FEF520E66D
:10070000B500D0ED902E0300943577050080841E4F
:10071000080000204E0A000000C80C333333330FAA
:10072000986E12831141EF8D2114893BE65516CF47
:10073000FEE6DB18D1844B381BF77C1D901DA4BB53
:10074000E424203284725E228100C9F124ECA1E508
:100750003D27F611E621312DFB1111241FBECFEFED
:10076000D8E0DEBFCDBF14E0A0E0B1E0ECECF3E7F1
:1007700002C005900D92A430B107D9F718E0A4E0AB
:10078000B4E001C01D92A132B107E1F717E0C8E55E
:10079000D7E004C02297FE010E94D539C235D107A7
:1007A000C9F70E945B230C94D7030C940000F894C3
:1007B0000C94D939EF92FF920F931F9381309105DA
:1007C00069F587E195E066E047E025E003E034E085
:1007D000E32E0E94182A8FE994E06AE04BE020E0C3
:1007E0000E9484258AE294E061E00E9425168EE052
:1007F00094E068E049E020E00E94842584E094E0F1
:100800006FE974E048E455E020E435E005E915E0DF
:10081000E4E6EE2EF12C0E948D120AC0009741F4FE
:100820008EE094E00E9487268FE994E00E9487265C
:100830001F910F91FF90EF9008951F93CF93DF9337
:10084000182FC0E0D0E021968FE994E00E94B623F3
:10085000009779F08FE994E00E946823AC0111239E
:1008600019F02EE330E002C02CE330E042175307CA
:1008700051F06AE070E080E090E00E94101FC83CF8
:10088000D10509F704C081E0C83CD10509F480E036
:10089000DF91CF911F9108958F929F92AF92BF9257
:1008A000CF92DF92EF92FF920F931F93CF93DF933C
:1008B0008DE061E00E94C41F8EE060E00E94C41FD2
:1008C0008EE296E040E855E260E070E00E944E2142
:1008D00029E288E190E00FB6F894A8958093600033
:1008E0000FBE20936000A89584E094E00E948015DC
:1008F0008FE994E040E855E260E070E00E94B125A5
:100900008CE061E00E94C41F8FE994E00E94D5232F
:100910008CE060E00E94F81F64E670E080E090E008
:100920000E94101F8CE061E00E94F81F81E00E948D
:100930001D04882321F481E08093FD0403C081E03D
:1009400080939E0480919E04882331F084E094E09B
:1009500060E071E00E94E61280E090E048E853E138
:1009600060E070E00E9414120E942F128EE094E06A
:1009700040E855E260E070E00E94B1258EE094E02E
:100980000E94D523C5E9D5E004E6DE01E02F1D92E3
:10099000EA95E9F700D000D0ADB7BEB71296DC9368
:1009A000CE9311978AE191E014969C938E931397BE
:1009B0000E944E340F900F900F900F908EE094E0B5
:1009C000BE010E948522FE01802F11928A95E9F7CF
:1009D00000D000D0ADB7BEB71296DC93CE9311977E
:1009E0008CE491E014969C938E9313970E944E345E
:1009F0000F900F900F900F908EE094E0BE010E9438
:100A00008522FE01802F11928A95E9F700D000D04F
:100A1000ADB7BEB71296DC93CE9311978DE591E0FA
:100A200014969C938E9313970E944E340F900F90C0
:100A30000F900F908EE094E0BE010E948522FE018F
:100A400011920A95E9F700D000D0ADB7BEB7129663
:100A5000DC93CE9311978DE691E014969C938E9340
:100A600013970E944E340F900F900F900F908EE0CE
:100A700094E0BE010E94852200E415E068EC70E07D
:100A800001C0BE01EB0121968CE597E00E948F2604
:100A9000F80181938F01C03DD10599F7609144051C
:100AA0007091450580914605909147056115710546
:100AB00081059105F1F10E94AF306B017C016091DD
:100AC00040057091410580914205909143050E9437
:100AD000AF304B015C01C701B60120E030E040E7D8
:100AE00052E40E9416309B01AC01C501B4010E9482
:100AF0001630209161053091620540916305509157
:100B000064050E9416304B015C01C701B60120E06C
:100B100030E041E655E40E9416309B01AC01C5016E
:100B2000B4010E94CA3140E022E005E715E00E94CE
:100B30009E3283E00E94741F87E195E062E04CE3FF
:100B40000E94A02A87E195E00E94AB2B68EE73E03B
:100B500080E090E00E94101F87E195E00E94292A22
:100B600087E195E061E070E00E94842987E195E0EB
:100B700061E00E947E2900D000D000D0EDB7FEB722
:100B80003196C5E7D5E0ADB7BEB71296DC93CE93EC
:100B9000119785E091E0938382838DE091E09583C6
:100BA00084830E944E34FE0101900020E9F78DB746
:100BB0009EB706960FB6F8949EBF0FBE8DBFEC1B76
:100BC000FD0BCF01880F991F8E0F9F1F880F991F54
:100BD00060E870E0681B790B7695679587E195E092
:100BE00040E050E00E94782980914C050C2FCD2FD9
:100BF000882329F487E195E063E171E004C087E18F
:100C000095E065E171E00E94662287E195E065E785
:100C100075E00E94662287E195E062E00E947E29ED
:100C200087E195E068E270E048E050E00E947829B2
:100C300000D000D000D0EDB7FEB73196ADB7BEB74B
:100C400011960C9311971296CC9384E191E09383C3
:100C5000828380915E0590915F05958384830E94D5
:100C60004E34EDB7FEB736960FB6F894FEBF0FBE02
:100C7000EDBF87E195E065E775E00E94662287E1B8
:100C800095E061E00E947E2980914E05882301F164
:100C9000CEE4D5E0FE0101900020E9F7EF54F540E5
:100CA000CF01880F991F8E0F9F1F880F991F60E833
:100CB00070E0681B790B7695679587E195E048E1D0
:100CC00050E00E94782987E195E0BE010E946622EB
:100CD00087E195E00E94AB2BC0E0D4E02197CE01E4
:100CE0000E94C0320097D1F30E9456338EE296E004
:100CF000BE014AE050E00E944123DF91CF911F9155
:100D00000F91FF90EF90DF90CF90BF90AF909F90AA
:100D10008F9008958F929F92BF92CF92DF92EF9221
:100D2000FF920F931F93CF93DF93B82E6A017B013D
:100D30004901CB01BA010E94AF3020E030E543EC1D
:100D400057E40E9416300E948330EB01182F092FC0
:100D500020EA36E841E050E00E943439DC01CB0162
:100D6000A7019601281B390B4A0B5B0BCA01B9017D
:100D70002AE030E040E050E00E947A398DB79EB71B
:100D80000C97BB2089F00FB6F8949EBF0FBE8DBFA5
:100D9000EDB7FEB73196ADB7BEB712969C928E9264
:100DA00011978EEB92E010C00FB6F8949EBF0FBE65
:100DB0008DBFEDB7FEB73196ADB7BEB712969C9218
:100DC0008E9211978AEC92E093838283C483D583B9
:100DD0001683078320873187428753870E944E34CA
:100DE0002DB73EB7245F3F4F0FB6F8943EBF0FBEFE
:100DF0002DBFDF91CF911F910F91FF90EF90DF906A
:100E0000CF90BF909F908F900895CF92DF92EF92F6
:100E1000FF920F931F93CF93DF930E94AF3020E890
:100E200036E948E15BE40E9416308B01D82FC92FC8
:100E3000CE01402F512F692F782FCB01BA010E948C
:100E40007E30882777FD8095982F0E94B1306B0106
:100E50007C019E01802F912FA32FB22FBC01CD01C9
:100E6000A70196010E94482F20E030E040E752E4BD
:100E70000E94163020E030E048EC52E40E94CA3173
:100E8000462F572F682F792FCB01BA01A701960162
:100E90000E94492F462F572F682F792FCB01BA0177
:100EA000DF91CF911F910F91FF90EF90DF90CF9046
:100EB00008952F923F924F925F926F927F928F92FE
:100EC0009F92AF92BF92CF92DF92EF92FF920F93D9
:100ED0001F93CF93DF93CDB7DEB7AE970FB6F894DD
:100EE000DEBF0FBECDBF8EE094E00E94D5230E94EE
:100EF000D41E6B017C0100E011C08EE094E00E94E2
:100F00006823682F8AE294E00E946C1A811101E044
:100F10008EE094E00E94B623009779F70E94D41ED9
:100F2000AB01BC01D701C601841B950BA60BB70B07
:100F3000C416D506E606F70620F480959095A09590
:100F4000B095883E23E0920720E0A20720E0B20798
:100F500010F00C94D7110E944412009711F00C94D9
:100F6000D711D6CF8091B501813419F48DE061E0BD
:100F700002C08DE060E00E94F81F0E9444120097BA
:100F800011F40C94DD11A8950E948412698F7A8F58
:100F90008B8F9C8F0E942F128091C9049091CA045C
:100FA000A091CB04B091CC04FC01EE0FFF1FEE0F1B
:100FB000FF1FE353FB4F298D3A8D4B8D5C8D2083B2
:100FC0003183428353830196A11DB11DBC01CD0124
:100FD0002CE030E040E050E00E947A39DC01CB01A7
:100FE0008093C9049093CA04A093CB04B093CC041B
:100FF000EDECF4E080E090E0DC01419151916191F1
:101000007191840F951FA61FB71F34E0ED3FF307C2
:10101000A1F7BC01CD010E94AF306B017C0122EB36
:1010200035EC4CEF55E30E94CA319B01AC0160E006
:1010300070E080E89FE30E94482F9B01AC01C7014C
:10104000B6010E9416300E9483306D8B7E8B8F8B91
:10105000988F8091C5049091C604A091C704B09167
:10106000C804298D3A8D4B8D5C8D820F931FA41F70
:10107000B51F8093C5049093C604A093C704B09392
:10108000C8048091BD049091BE04A091BF04B091AA
:10109000C0040596A11DB11D8093BD049093BE04AC
:1010A000A093BF04B093C0048091C1049091C20486
:1010B000A091C304B091C4042D893E894F89588DF5
:1010C00082179307A407B50740F42093C104309317
:1010D000C2044093C3045093C4048091400590918E
:1010E0004105A0914205B0914305298D3A8D4B8D64
:1010F0005C8D820F931FA41FB51F809340059093B2
:101100004105A0934205B093430580914405909119
:101110004505A0914605B09147050596A11DB11D55
:101120008093440590934505A0934605B0934705E9
:10113000BC01CD0120E13EE040E050E00E947A3960
:10114000DC01CB010097A105B105A1F400E415E095
:1011500068EC70E0780101C0B8018B010F5F1F4F90
:10116000D7014D917D018CE597E00E949326003DCB
:10117000110591F78091BB049091BC048C309105CE
:101180004CF426E52093B60101969093BC0480931D
:10119000BB040EC02D893E894F89588D211531051C
:1011A0004105510511F486E501C081E48093B60143
:1011B0008091FD04882309F042C18CED97E0988767
:1011C0008F831E821D821C821B821A8219828AE2F0
:1011D00094E0BE01695F7F4FAE014A5F5F4F9E01A1
:1011E0002B5F3F4F8E010C5F1F4FE3E0EE2EF12C83
:1011F000EC0EFD1EF2E0CF2ED12CCC0EDD1E5E01DA
:101200000894A11CB11CA1E18A2E912C8C0E9D1E6C
:101210000E94C81C89899A89AB89BC898F3F3FEF9E
:1012200093073FEFA3073FEFB30709F408C14DB79A
:101230005EB74A5050400FB6F8945EBF0FBE4DBF28
:10124000EDB7FEB731968EEF94E0ADB7BEB712960C
:101250009C938E9311978DE791E093838283809185
:101260005E0590915F05958384838E8186831782C6
:101270008D81808711860E944E3481E08093FD0429
:10128000EDB7FEB73A960FB6F894FEBF0FBEEDBFAE
:101290008FE994E00E94D523A8958FE994E067E157
:1012A00071E00E9466228FE994E06EEF74E00E9484
:1012B00066228FE994E06DE00E945E2480E00E9447
:1012C0001D04882391F48CE060E00E94F81F64E61E
:1012D00070E080E090E00E94101F8CE061E00E94CE
:1012E000F81F81E00E941D04D7CF00D000D005E791
:1012F00015E0ADB7BEB712961C930E9311978EE80A
:1013000091E014969C938E9313970E944E340F9005
:101310000F900F900F908FE994E0B8010E94662221
:1013200000D000D0EDB7FEB71283018382EA91E0CE
:10133000948383830E944E340F900F900F900F90F0
:101340008FE994E0B8010E94662200D000D0ADB7CA
:10135000BEB712961C930E93119788EA91E01496EB
:101360009C938E9313970E944E340F900F900F9082
:101370000F908FE994E0B8010E946622EDB7FEB7A6
:1013800074970FB6F894FEBF0FBEEDBFCDB6DEB6B4
:101390000894C11CD11C05E915E0128301838CEB74
:1013A00091E0D60113969C938E9312978EE495E06C
:1013B00015969C938E93149720916B0516962C93FB
:1013C000169717961C9217974E9619969C938E9384
:1013D0001897609161057091620580916305909105
:1013E00064050E947E30DC01CB01F6019387828781
:1013F0008091700584871586809171058687178690
:101400008091720590917305918B808B809174050A
:10141000828B138A0E944E342DB73EB72C5E3F4F0D
:101420000FB6F8943EBF0FBE2DBF8FE994E0B80110
:101430000E9466228EE296E0B8010E94662284E64F
:10144000E5E9F5E0DF011D928A95E9F76CED662E7E
:1014500067E0762E78866F8219821A821B821C8240
:101460001D821E82198A1A8A1B8A1C8A1D861E8664
:101470001F86188A8CE0E9EFF5E0DF01282F1D9226
:101480002A95E9F7E5E0F6E0DF011D928A95E9F794
:1014900080E2E5E7F5E0DF011D928A95E9F78AE24F
:1014A00094E0BE01695F7F4FAE014F5F5F4F9E01C9
:1014B0002E5F3F4F8E010D5F1F4FA4E0EA2EF12CEF
:1014C000EC0EFD1EB5E0CB2ED12CCC0EDD1EA6E021
:1014D000AA2EB12CAC0EBD1EB9E08B2E912C8C0E19
:1014E0009D1E0E94C81C89859A85AB85BC858F3F4F
:1014F000EFEF9E07EFEFAE07EFEFBE0741F4788600
:101500006F8219821A821B821C821D821E828AE2CD
:1015100094E0BE016F5E7F4FAE01435F5F4F9E015F
:10152000275F3F4F0E94361C80919204882311F45C
:1015300086E501C081E48093B5018AE294E00E94CF
:10154000A01D6BA37CA38DA39EA38AE294E00E94BE
:10155000E61D6D8F7E8F8F8F98A320916A04309146
:101560006B043AA329A3C0906204D0906304E09076
:101570006404F090650489899A89AB89BC89B7FFB6
:101580000EC0B095A095909581959F4FAF4FBF4FDE
:10159000898B9A8BAB8BBC8B53E5452E02C04EE4F6
:1015A000442E8D859E85AF85B889B7FF0EC0B09556
:1015B000A095909581959F4FAF4FBF4F8D879E8788
:1015C000AF87B88B37E5632E02C025E4622E4989C8
:1015D0005A896B897C894F3F39EC53073AE9630795
:1015E0003BE3730719F440E050E0BA0181E029EFD2
:1015F00035E00E948A064D855E856F8578894F3F6C
:1016000089EC58078AE968078BE3780719F440E00A
:1016100050E0BA0180E025E036E00E948A065BA136
:101620004CA13DA12EA1852F942FA32FB22FBC0139
:10163000CD012091B9033091BA034091BB03509181
:10164000BC030E940F30882321F470E060E090E03A
:1016500004C07BA16CA19DA18EA1AB019C01852F33
:10166000962FA32FB22FBC01CD0140E022E005E769
:1016700015E00E949E32E5E9F5E084E6DF011D9267
:101680008A95E9F720915E0530915F0538A72FA371
:101690004F8158855AA749A729813A814B815C819E
:1016A0006D818091C5049091C604A091C704B0914A
:1016B000C8048BA79CA7ADA7BEA77091B601A09048
:1016C000B5014F019FEFC9169FEFD9069FEFE906BD
:1016D0009FEFF90619F4CC24DD247601A9A1BAA163
:1016E000AF3FB10519F400E010E002C009A11AA152
:1016F000EDB7FEB7F4970FB6F894FEBF0FBEEDBF7F
:101700003196ADB7BEB712969C928E92119781EF2B
:10171000282E81E0382E338222829FE1292E91E00B
:10172000392E358224828FA198A597838683A9A517
:10173000BAA5B187A0872287138634871586468786
:101740001786508B118A628B138A2D893E894F89A7
:10175000588D248B358B468B578B898D9A8DAB8D0D
:10176000BC8D808F918FA28FB38F2BA53CA54DA5EB
:101770005EA5248F358F468F578F70A311A289EFF6
:1017800095E093A382A344A215A285E096E097A3D7
:1017900086A360A611A685E795E093A782A7A4A6D5
:1017A00015A6C6A6D7A6E0AAF1AA13AB02AB0E9463
:1017B0004E34F40101900020E9F73197E559F540E6
:1017C0008E2F90E0DC01AB56BA4F1C9240919605EB
:1017D000E7E9F5E02DB73EB72C5C3F4F0FB6F89424
:1017E0003EBF0FBE2DBF21E030E004C05191452720
:1017F0002F5F3F4F28173907CCF3403170F400D0EA
:1018000000D000D02DB73EB72F5F3F4FEDB7FEB7EA
:10181000B283A18381E492E00DC000D000D000D05B
:101820002DB73EB72F5F3F4FEDB7FEB7B283A18311
:1018300086E492E0D90113969C938E9312971496A6
:101840004C93149715961C920E944E34EDB7FEB738
:1018500036960FB6F894FEBF0FBEEDBF809192048E
:10186000882309F4ACC069897A898B899C890E9494
:1018700005072B013C016D857E858F8598890E9427
:101880000507698F7A8F8B8F9C8F6D8D7E8D8F8DE5
:1018900098A120E030E040EA50E40E94BF311816E1
:1018A00024F049E1842E912C03C035E0832E912C45
:1018B0006D8D7E8D8F8D98A120E030E040E251E467
:1018C0000E94BF3118161CF42AE0822E912C6D8DD7
:1018D0007E8D8F8D98A120E030E040E751E40E949A
:1018E000BF3118161CF494E1892E912C8091B70118
:1018F0008823B9F040920F055092100560921105AF
:1019000070921205298D3A8D4B8D5C8D20931305B5
:101910003093140540931505509316051092B701A6
:101920004EC0E0900F05F090100500911105109148
:101930001205A0901305B0901405C0901505D09025
:101940001605C301B201298D3A8D4B8D5C8D0E9425
:10195000F51A0E947E30AB01BC01C401AA2797FD95
:10196000A095BA2F84179507A607B70740F5809171
:101970000B0590910C05A0910D05B0910E05840FFB
:10198000951FA61FB71F80930B0590930C05A0937E
:101990000D05B0930E0540920F0550921005609210
:1019A000110570921205898D9A8DAB8DBC8D809337
:1019B000130590931405A0931505B093160587E1C0
:1019C00095E00E94292A80914C05882309F04DC298
:1019D000C090BD04D090BE04E090BF04F090C0045D
:1019E000C701B60120E13EE040E050E00E947A39B4
:1019F000022F2B83C701B6012CE330E040E050E01A
:101A00000E947A398CE3809F802D1124281B2C831F
:101A1000ADB7BEB718970FB6F894BEBF0FBEADBF37
:101A2000EDB7FEB7319685E7E82E85E0F82E1296E1
:101A3000FC92EE9211978AE492E09383828304836E
:101A40001582268317820E944E34EDB7FEB7389672
:101A50000FB6F894FEBF0FBEEDBF87E195E06CE5D1
:101A600070E040E150E00E94782987E195E061E074
:101A70000E947E2987E195E061E070E00E94842960
:101A800087E195E0B7010E94852287E195E060E05B
:101A900070E040E050E00E94782987E195E062E044
:101AA0000E947E298091B601863549F487E195E050
:101AB00060E070E041E050E00E948A2906C087E1C2
:101AC00095E061E070E00E9484292D893E894F896C
:101AD000588D293E83E0380780E0480780E05807AA
:101AE000E0F0CA01B90128EE33E040E050E00E9486
:101AF0007A39CA01B9010E94AF3040E021E005E720
:101B000015E00E949E3287E195E0B8010E946622AE
:101B100087E195E065E271E00FC06D897E898F896C
:101B2000988D0E94AF3040E020E005E715E00E946C
:101B30009E3287E195E0B8010E94662200D000D075
:101B400005E715E0ADB7BEB712961C930E9311973B
:101B500085E592E014969C938E9313970E944E34E1
:101B60000F900F900F900F9087E195E0B8010E94C1
:101B7000662280919E04882379F4809111069091C9
:101B80001206009749F087E195E060E070E041E0DF
:101B900050E00E948A2906C087E195E061E070E08C
:101BA0000E94842987E195E061E00E947E2980916E
:101BB000920405E715E08823C9F487E195E06CE518
:101BC00070E040E050E00E94782900D000D0EDB7EE
:101BD000FEB7128301838AE592E0948383830E9497
:101BE0004E340F900F900F900F9027C087E195E033
:101BF00064E770E040E050E00E94782900D000D017
:101C000000D0EDB7FEB73196ADB7BEB712961C93B4
:101C10000E93119787E291E09383828329A13AA1E1
:101C2000358324830E942C344DB75EB74A5F5F4FE3
:101C30000FB6F8945EBF0FBE4DBF87E195E0B801C7
:101C40000E94852287E195E061E070E00E9484298E
:101C500087E195E060E070E040E150E00E94782983
:101C600080914D05882369F56D897E898F89988DCE
:101C70000E94AF302091610530916205409163056B
:101C8000509164050E94163005E7C02E05E0D02E65
:101C900040E023E086010E949E3287E195E0B60194
:101CA0000E94662200D000D0ADB7BEB71296DC927B
:101CB000CE92119781E692E014969C938E9313979F
:101CC0002AC0813099F56D897E898F89988D0E940F
:101CD000AF302091650530916605409167055091C0
:101CE00068050E94CA3115E7C12E15E0D12E40E0EB
:101CF00023E086010E949E3287E195E0B6010E94B2
:101D0000662200D000D0EDB7FEB7D282C18288E64D
:101D100092E0948383830E944E340F900F900F9033
:101D20000F9087E195E0B6010E948522809111060F
:101D300090911206B5E7CB2EB5E0DB2E009709F4A3
:101D40004AC060910B0570910C0580910D05909132
:101D50000E050E94AF3020E030E04AE754E40E94D4
:101D6000163040E021E086010E949E32F60101908B
:101D70000020E9F73197EC19FD09CF01880F991F71
:101D80008E0F9F1F880F991F64E770E0681B790B07
:101D900087E195E048E050E00E94782987E195E0EE
:101DA000B6010E94662200D000D0ADB7BEB7129631
:101DB000DC92CE9211978FE692E014969C938E93CC
:101DC00013970E944E340F900F900F900F9087E161
:101DD00095E0B60147C080919204882381F05BA111
:101DE0004CA13DA12EA1852F942FA32FB22FBC0172
:101DF000CD0140E020E086010E949E3210C000D05C
:101E000000D0EDB7FEB7D282C18282E792E0948320
:101E100083830E944E340F900F900F900F9005E730
:101E200015E0F80101900020E9F73197E01BF10B74
:101E3000CF01880F991F8E0F9F1F880F991F6AE788
:101E400070E0681B790B87E195E048E050E00E9464
:101E5000782987E195E0B8010E94662287E195E044
:101E60006BE271E00E948522DAC1813009F0A7C1DE
:101E70008091B601863549F487E195E060E070E035
:101E800041E050E00E948A2906C087E195E061E0C8
:101E900070E00E94842987E195E062E00E947E293B
:101EA00087E195E060E070E040E050E00E94782932
:101EB0006D897E898F89988D0E94AF304B015C01BE
:101EC0002091610530916205409163055091640550
:101ED0000E941630B5E7CB2EB5E0DB2E40E022E0C5
:101EE00086010E949E3287E195E0B6010E9466223B
:101EF00000D000D0ADB7BEB71296DC92CE9211974B
:101F000085E792E014969C938E9313970E944E342B
:101F10000F900F900F900F9087E195E0B6010E940F
:101F2000662287E195E060E070E040E150E00E94C9
:101F3000782987E195E061E00E947E2987E195E0BC
:101F400061E070E00E948429809111069091120650
:101F5000009709F47DC02D893E894F89588D293E0F
:101F600083E0380780E0480780E05807D0F0CA01D6
:101F7000B90128EE33E040E050E00E947A39CA010E
:101F8000B9010E94AF3040E021E00E949E3287E11B
:101F900095E0B6010E94662287E195E065E271E076
:101FA0000EC087E195E04D895E896F89788D2AE0C2
:101FB00030E00E94F92287E195E06DE271E00E9435
:101FC000662200D000D0A5E7CA2EA5E0DA2EADB774
:101FD000BEB71296DC92CE9211978BE792E01496E0
:101FE0009C938E9313970E944E340F900F900F90F6
:101FF0000F9087E195E0B6010E946622C501B40109
:1020000020916505309166054091670550916805FE
:102010000E94CA3140E020E086010E949E3287E1A2
:1020200095E0B6010E94662200D000D0EDB7FEB761
:10203000D282C18280E892E0948383830E944E34EE
:102040000F900F900F900F9087E195E0B601E5C0DB
:1020500000D000D0ADB7BEB71296DC92CE921197E9
:1020600087E892E014969C938E9313970E944E34C7
:102070000F900F900F900F9087E195E0B6010E94AE
:1020800066226091C1047091C2048091C304909152
:10209000C4040E94AF3020916105309162054091E7
:1020A0006305509164050E94163040E021E08601EE
:1020B0000E949E3287E195E0B6010E94662200D020
:1020C00000D0EDB7FEB7D282C1828BE892E0948354
:1020D00083830E944E340F900F900F900F9087E1F2
:1020E00095E0B6010E94662200D000D0ADB7BEB721
:1020F0001296DC92CE92119781E992E014969C930D
:102100008E9313970E944E340F900F900F900F9064
:1021100087E195E0B6010E946622609144057091C6
:10212000450580914605909147050E94AF304B01CF
:102130005C0160914005709141058091420590914C
:1021400043050E94AF302B013C01C501B40120E0E2
:1021500030E040E752E40E9416309B01AC01C3011D
:10216000B2010E94163020916105309162054091C4
:102170006305509164050E9416302B013C01C50196
:10218000B40120E030E041E655E40E9416309B01A6
:10219000AC01C301B2010E94CA3140E020E00E94BC
:1021A0009E3287E195E0B6010E94662200D000D001
:1021B000EDB7FEB7D282C18285E992E03DCF87E1DB
:1021C00095E060E070E040E050E00E94782987E10F
:1021D00095E062E00E947E2987E195E060E070E092
:1021E00041E050E00E948A2900D000D005E715E0C8
:1021F000ADB7BEB712961C930E93119788E992E083
:1022000014969C938E9313970E944E340F900F90C8
:102210000F900F9087E195E0B8010E946622EDB71C
:10222000FEB73E970FB6F894FEBF0FBEEDBF3196D6
:1022300005E715E0ADB7BEB712961C930E93119744
:1022400085EA92E0938382838A81848315828981DF
:10225000868317828B81808711868C818287138683
:102260008D81848715860E944E34EDB7FEB73E9669
:102270000FB6F894FEBF0FBEEDBF87E195E060E0BA
:1022800070E048E150E00E94782987E195E061E044
:102290000E947E2987E195E061E070E00E94842938
:1022A00087E195E0B8010E94852285E10E94771FB1
:1022B0009C01B901882777FD8095982F0E94B13045
:1022C00020E030E040E85AE30E94CA3123E333E3E0
:1022D00043E550E40E94CA3124EB35EC4AEC5DE35F
:1022E0000E94163020E030E040E650E40E94482F83
:1022F00020E030E040E051E40E94CA312DEC3CEC9B
:102300004CE45FE30E9416300E947E306B017C013A
:1023100077FD04C06930710524F406C0CC24DD24A7
:1023200003C0F8E0CF2ED12C87E195E064E770E0A0
:1023300048E150E02CE030E007E010E0E1E0EE2E74
:10234000F12C0E94642787E195E066E770E04AE19E
:1023500050E0960103E010E00E94EF2787E195E04E
:102360000E94AB2B809111069091120621E030E083
:102370008227932790931206809311068EE296E0AF
:1023800065E975E00E9485228091FD048823A9F00B
:1023900080914C05882389F48FE994E00E94D5232D
:1023A0008FE994E065E975E00E94852206C000236C
:1023B00011F40C94B2070C94B607AE960FB6F894CD
:1023C000DEBF0FBECDBFDF91CF911F910F91FF9068
:1023D000EF90DF90CF90BF90AF909F908F907F90C5
:1023E0006F905F904F903F902F90089581E090E024
:1023F0000E94DA03089580E090E00E94DA030895D5
:102400008091130690911406A0911506B0911606BE
:102410000196A11DB11D8093130690931406A093FD
:102420001506B0931606089580931F069093200614
:1024300040931706509318066093190670931A0676
:10244000109213061092140610921506109216069A
:1024500060E072E143E050E00E94101E08950E9487
:10246000D41EDC01CB0180931B0690931C06A09325
:102470001D06B0931E0610921306109214061092B9
:102480001506109216060895CF92DF92EF92FF92F2
:102490000F931F930E94D41EDC01CB0140911B06B9
:1024A00050911C0660911D0670911E060091170642
:1024B000109118062091190630911A068417950775
:1024C000A607B70748F06C017D01C41AD50AE60AD1
:1024D000F70AB701A60108C0409550956095709520
:1024E000480F591F6A1F7B1F81E090E0401751077A
:1024F0006207730710F480E090E01F910F91FF9046
:10250000EF90DF90CF9008956091130670911406BC
:1025100080911506909116060895EF92FF920F9301
:102520001F93FC017183608353834283358324832B
:1025300017830683F186E0861F910F91FF90EF903D
:102540000895EF92FF920F931F93CF93DF93EB01C8
:102550002DE2E22EF12C8C01061B170BBE01600F41
:10256000711F49918CE597E00E9493260894E10839
:10257000F108E114F10491F78DE290E0DF91CF9141
:102580001F910F91FF90EF900895EF92FF920F939C
:102590001F93CF93DF937C018B01C0E0D0E0F80163
:1025A00041918F01BE016E0D7F1D8CE597E00E9469
:1025B00093262196C830D10591F788E090E0DF910D
:1025C000CF911F910F91FF90EF9008957F928F927E
:1025D0009F92AF92BF92CF92DF92EF92FF920F93B2
:1025E0001F93CF93DF935C01EB01DC018D919C91F4
:1025F0000E94D523EDB7FEB738970FB6F894FEBF0B
:102600000FBEEDBF3196D50116968D919C9117970F
:10261000ADB7BEB712969C938E9311978AED92E058
:1026200093838283D583C483D50118968D919C9121
:102630001997978386830E944E34EDB7FEB738967C
:102640000FB6F894FEBF0FBEEDBFD50116966D9183
:102650007C9117978D919C910E946622F501808153
:102660009181DC01ED91FC910190F081E02D6DE014
:102670000995F50180819181DC01ED91FC91048047
:10268000F581E02D09950097A1F3F50180819181F5
:10269000DC01ED91FC910680F781E02D09958D30EC
:1026A000910539F7F501408551858681978160E074
:1026B00070E00E940D34C0E0D0E07724D5018D9108
:1026C0009C91DC01ED91FC910480F581E02D099550
:1026D000009791F0F501C681D781C70DD11D80818A
:1026E0009181DC01ED91FC910680F781E02D099547
:1026F00088837394C0E0D0E061E070E080E090E017
:102700000E94101F272D30E0F50180859185281744
:10271000390729F02196F3E0C83EDF077CF28824D0
:102720009924D2C1D50116966D917C911797DB0142
:10273000A80DB11D40E009C04F5F882D90E0F50164
:10274000208531858217930739F0FB01E80DF11DD3
:10275000808183948A3081F7FD01E40FF11D10829E
:102760008C91882309F4B0C1833209F4ADC14330A0
:1027700008F4AAC180E0ED01C80FD11D9881903204
:1027800011F0993051F48F5F8417A9F79DC19032F1
:1027900011F0993009F410828F5F841709F494C105
:1027A000FD01E80FF11D90819D3389F7841709F42D
:1027B0008BC110828F5F8D01080F111DF801908170
:1027C000903211F0993021F48F5F8417A1F77CC10A
:1027D000841709F479C1CE016FE271E00E941434CC
:1027E000009779F5C8010E94EF339C01B901882751
:1027F00077FD8095982F0E94B130EB01F82EE92EDD
:10280000D5011296CD90DC901397F601618D728DF3
:10281000838D948DA7010C2F1D2F252F342FA901F7
:1028200098010E940F30882309F44EC197018C2F24
:102830009D2FA32FB22FF601818F928FA38FB48F7C
:1028400035C0CE0164E371E00E941434009789F52D
:10285000C8010E94EF339C01B901882777FD80955C
:10286000982F0E94B130EB01F82EE92ED501129677
:10287000CD90DC901397F601658D768D878D90A1B4
:10288000A7010C2F1D2F252F342FA90198010E947D
:102890000F30882309F418C197018C2F9D2FA32F87
:1028A000B22FF601858F968FA78FB0A399249394AA
:1028B0000BC1CE0169E371E00E941434009739F432
:1028C000D5011296CD91DC91139726966BC0CE015F
:1028D0006CE371E00E941434009781F4F501C28129
:1028E000D381C8010E94EF339C018E899F89821792
:1028F000930709F4E9C03F8B2E8BD8CFCE0160E45B
:1029000071E00E941434009781F4D5011296CD91A4
:10291000DC911397C8010E94EF332C8130E0281717
:10292000390709F4D1C08C83C1CFCE0163E471E0D3
:102930000E941434009771F4F501C281D381C8015B
:102940000E94EF332D8130E02817390709F4BCC00D
:102950008D83ACCFCE0166E471E00E941434009701
:1029600091F4D5011296CD91DC911397C8010E9484
:10297000EF339C0189A19AA18217930709F4A4C09F
:102980003AA329A393CFCE0169E471E00E941434E5
:102990000097A1F4F8011382D5011296CD91DC9134
:1029A0001397A496CE01B8010E941434009709F43D
:1029B0008BC0CE01B8010E941D3478CFCE016CE4EB
:1029C00071E00E941434009771F4F501C281D38143
:1029D000C8010E94EF332BA130E02817390709F412
:1029E00073C08BA363CFCE016FE471E00E941434F7
:1029F000009781F4D5011296CD91DC911397C8010F
:102A00000E94EF3328A530E02817390709F45CC08D
:102A100088A74CCFCE0162E571E00E941434009784
:102A200071F4F501C281D381C8010E94EF3329A559
:102A300030E02817390709F447C089A737CFCE01FE
:102A400065E571E00E941434009789F4D50112966F
:102A5000CD91DC911397C8010E94EF339C018AA5A8
:102A60009BA58217930781F13BA72AA71FCFCE0111
:102A700068E571E00E941434009769F4F501C281A1
:102A8000D381C8010E94EF332CA530E02817390705
:102A9000D9F08CA70BCFCE016BE571E00E94143406
:102AA000009791F4D5011496EC9114971596FC912A
:102AB00088E0DF011D928A95E9F7F501648175814F
:102AC00088EC90E00E94C512871408F42BCE992060
:102AD00049F0D50112966D917C91139784EF91E0A6
:102AE0000E94A112DF91CF911F910F91FF90EF9063
:102AF000DF90CF90BF90AF909F908F907F90089580
:102B0000EF92FF920F931F93CF93DF938C01DC0121
:102B10001296EC9112971396FC918DE2DF011D92B3
:102B20008A95E9F7F801E280F38064EF71E001C073
:102B3000BE01EB0121968CE597E00E948F26D7011C
:102B40008D937D01B2E0C132DB0791F7D801129677
:102B5000ED91FC91139780819181A281B3818D3099
:102B600020EF92072EEFA2072AE5B20709F466C00C
:102B70008DE2DF011D928A95E9F7D8011296ED9159
:102B8000FC9113978DE090EFAEEFBAE580839183CF
:102B9000A283B38382ED90E0978B868B89E083A339
:102BA00000D000D0F801828193818496ADB7BEB782
:102BB00012969C938E93119786ED92E014969C93B7
:102BC0008E9313970E944E34D8011296ED91FC918A
:102BD00013978CE3808F1296ED91FC91139780E010
:102BE00090E0A7EAB3E4818F928FA38FB48F80E047
:102BF00090E0A4E1B2E4858F968FA78FB0A384E61E
:102C000090E093A782A70F900F900F900F9084EF02
:102C100091E0BF010E94A112D8011496EC91149783
:102C20001596FC9188E0DF011D928A95E9F7F8017D
:102C30006481758188EC90E00E94C512DF91CF918C
:102C40001F910F91FF90EF900895FC01262F4FEFF9
:102C50005FEFBA01408351836283738310861186CC
:102C6000128613868FEF99ECAAE9BBE3808B918BD8
:102C7000A28BB38B808F918FA28FB38F80A391A3F0
:102C8000A2A3B3A380A791A7A2A7B3A780AB91AB40
:102C9000A2ABB3AB40AF51AF62AF73AFDF01A05C8B
:102CA000BF4F8FEF90E08D939C93DF01AC5BBF4FE4
:102CB0004D935D936D937C931397DF01A45BBF4F9E
:102CC0004D935D936D937C931397DF01AC5ABF4F87
:102CD0001C92DF01AB5ABF4F1C92DF01AB59BF4FB3
:102CE00082E08C93DF01AA59BF4F1C92DF01A959E2
:102CF000BF4F1C92DF01A859BF4F1C92DF01A6599C
:102D0000BF4F1D921D921D921C921397DF01A25975
:102D1000BF4F1D921C92DF01A059BF4F1D921C9204
:102D2000DF01AA5ABF4F1C92E759FF4F2083089535
:102D3000262F2154862F90E0263010F4C79708954F
:102D40006156663018F4875590400895C0970895ED
:102D5000EF92FF920F931F93CF937B0100E010E05F
:102D6000980112C0C901B8012AE030E040E050E00B
:102D70000E9434398B019C010C0F111D211D311D46
:102D80000053104020403040F701C1917F018C2F4B
:102D900080538A3038F3B801C901CF911F910F9148
:102DA000FF90EF9008952F923F924F925F926F9213
:102DB0007F928F929F92AF92BF92CF92DF92EF92CB
:102DC000FF920F931F93CF93DF9326E5E22EF12C12
:102DD000E80EF91EB7010E94A816EB01182F092F63
:102DE000F7012E2F9F2F8191382F30533A30C8F39F
:102DF0008E32A1F5622E792E80E1C82E87E2D82E80
:102E0000E12CF12C8824992454019AE0292E312CAC
:102E1000412C512C19C070E060537040882777FD19
:102E20008095982FA70196010E943439DC01CB01CF
:102E3000880E991EAA1EBB1EC701B601A2019101F0
:102E40000E947A3969017A01F30161810894611C59
:102E5000711C862F80538A30F0F203C08824992495
:102E60005401BE01812F902F20EA36E841E050E066
:102E70000E9434398B019C01080D191D2A1D3B1D30
:102E8000B801C901DF91CF911F910F91FF90EF9091
:102E9000DF90CF90BF90AF909F908F907F906F907A
:102EA0005F904F903F902F9008952F923F924F92B6
:102EB0005F926F927F928F929F92AF92BF92CF92CA
:102EC000DF92EF92FF920F931F93CF93DF9356E51C
:102ED000C52ED12CC80ED91EB6010E94A816162FD9
:102EE000072FEC0124E630E040E050E00E947A3900
:102EF00020EA36E841E050E00E9434394B015C01A1
:102F0000F6012E2F9F2F8191382F30533A30C8F37E
:102F10008E3281F5622E792E30E1C32E37E2D32E28
:102F2000E12CF12C4AE0242E312C412C512C19C0DB
:102F300070E060537040882777FD8095982FA70137
:102F400096010E943439DC01CB01880E991EAA1E1D
:102F5000BB1EC701B601A20191010E947A39690125
:102F60007A01F30161810894611C711C862F8053E2
:102F70008A30F0F2C501B4016B5F7F4F8F4F9F4FD6
:102F800026E030E040E050E00E947A3969017A01A1
:102F9000612F702FCE0124E630E040E050E00E9427
:102FA0007A39CA01B90120E432E44FE050E00E94CE
:102FB0003439DC01CB01C80ED91EEA1EFB1EB60156
:102FC000C701DF91CF911F910F91FF90EF90DF909C
:102FD000CF90BF90AF909F908F907F906F905F90B9
:102FE0004F903F902F900895FF920F931F93CF9390
:102FF000DF93EC01CA5ADF4FFF24F39428812D326E
:1030000011F0FF2403C0EC01C95ADF4FBE010E943A
:10301000A81624E630E040E050E00E9434398B01ED
:103020009C01FE018991982F90539A30D0F38E32F3
:1030300051F54181842F80538A3028F5842F90E008
:10304000AC01440F551F73E0880F991F7A95E1F783
:10305000480F591F405E5140662757FD6095762FF7
:10306000040F151F261F371F8281982F90539A3007
:1030700050F490E0C097AA2797FDA095BA2F080FAB
:10308000191F2A1F3B1FFF2039F0309520951095FE
:1030900001951F4F2F4F3F4FB801C901DF91CF91CD
:1030A0001F910F91FF900895DB01FA018D91882304
:1030B00019F091918917D1F390E00895EF92FF9262
:1030C0000F931F93CF93DF938C01FC01EB5AFF4FBB
:1030D0008081F801882309F4EBC0EA5AFF4FC80148
:1030E00060810E949816C82FF801E95AFF4FC80165
:1030F00060810E949816C295C07FC80FF801EC5AF3
:10310000FF4F8081F801C81709F0CAC0E859FF4F86
:103110008081F801882309F494C0E259FF4F80812F
:103120009181019691838083F801EC5BFF4FD80178
:10313000A85BBF4F8D919D910D90BC91A02D808378
:103140009183A283B383F801E45BFF4FD801A05BB6
:10315000BF4F8D919D910D90BC91A02D8083918347
:10316000A283B383F801EB59FF4F80818823A9F133
:10317000813009F0A7C1F80184819581A681B781CA
:1031800080839183A283B38384859585A685B78543
:1031900080879187A287B38784899589A689B78913
:1031A000808B918BA28BB38B848D958DA68DB78DE3
:1031B000808F918FA28FB38F84A595A5A6A5B7A563
:1031C00080A791A7A2A7B3A784A995A9A6A9B7A9E3
:1031D00080AB91ABA2ABB3AB75C1F80184A195A153
:1031E000A6A1B7A180A391A3A2A3B3A38481958133
:1031F000A681B78180839183A283B38384899589D3
:10320000A689B789808B918BA28BB38B848D958D8A
:10321000A68DB78D808F918FA28FB38FE05CFF4F0B
:10322000D801AE5BBF4F8D919C9191838083F80153
:1032300084AD95ADA6ADB7AD80AF91AFA2AFB3AF42
:1032400041C184819581A681B7810097A105B1050F
:1032500009F43AC1E801CC5BDF4FE85BFF4F4081E6
:10326000518162817381488359836A837B83F8012A
:10327000EB59FF4F2081222389F0213009F024C12E
:10328000F80180839183A283B38384859585A68585
:10329000B78580879187A287B38716C1F80186C05A
:1032A000E059FF4F808191810196918380830CC109
:1032B000EA59FF4F8081882301F5E801CA5ADF4FA0
:1032C000C801BE0140E651E00E945418B5E6EB2E5D
:1032D000F12CE00EF11E009711F481E00CC0C80142
:1032E000BE0146E651E00E945418009719F4F70118
:1032F0001082EAC082E0F701C2C0F801EB59FF4F2B
:10330000E081E23009F4E0C0D801AA5ABF4F2C9105
:10331000222309F4D9C0F0E0A5E0EE0FFF1FAA9523
:10332000E1F790E0E82BF92B3197E932F10508F04D
:10333000CBC0EC5CFF4FEE0FFF1F0590F491E02D2A
:103340000994C8010E94F417DC01CB01F8018483C1
:103350009583A683B7830E94D41EDC01CB01F801BC
:10336000E85BFF4F23C0F801E859FF4F81E02134AB
:1033700009F084C084C0F801E759FF4F8081882399
:1033800021F0C8010E94D31603C0C8010E9455173E
:10339000DC01CB01F801848B958BA68BB78B0E9447
:1033A000D41EDC01CB01F801E05BFF4F80839183E9
:1033B000A283B38389C0233509F086C0F8018489CC
:1033C0009589A689B789B095A095909581959F4FCD
:1033D000AF4FBF4F848B958BA68BB78B75C0F80111
:1033E000E759FF4F8081882321F0C8010E94D3163E
:1033F00003C0C8010E945517DC01CB01F8010FC0C2
:10340000273509F061C0F801848D958DA68DB78DA3
:10341000B095A095909581959F4FAF4FBF4F848FEA
:10342000958FA68FB78F50C0C8010E94F417DC019A
:10343000CB01F80184A795A7A6A7B7A745C0C801E7
:103440000E94F417DC01CB01F80184AB95ABA6AB6D
:10345000B7AB3AC0B8016A5A7F4FC8010E94A8169C
:10346000DC01CB01F80184879587A687B7872CC03C
:10347000F801E859FF4F81E0213308F480E08083B0
:1034800023C0C8018A5A9F4F0E94EF33F801EE5BB8
:10349000FF4F8083118218C0C8010E94F417DC011D
:1034A000CB01F80184AF95AFA6AFB7AF0DC0C8018F
:1034B0000E94F417DC01CB01F80184A395A3A6A315
:1034C000B7A302C081E001C080E0DF91CF911F91DE
:1034D0000F91FF90EF9008950F931F93CF93DF9379
:1034E0000F92CDB7DEB78C01FC01E659FF4F80810A
:1034F0009181A281B3810196A11DB11D8083918329
:10350000A283B383F801E959FF4F6432C9F16532F0
:1035100030F46A3079F06D3009F049C00BC06A327E
:1035200049F06C3209F043C0F801EC5AFF4F80813A
:1035300086278083F801E959FF4F80818F3060F43E
:10354000F801E80FF11DEA5AFF4F1082C8016983A4
:103550000E945E18698101C080E0F801EA59FF4FBE
:1035600090819F5F9083F801E959FF4F1082F80125
:10357000EB5AFF4F91E06A3209F090E090832FC040
:103580001082F801EA59FF4F1082F801EC5AFF4F00
:103590001082F801EB59FF4F82E08083F801EB5A6B
:1035A000FF4F1082F801E859FF4F108217C0808149
:1035B0008E3040F4D801A80FB11DAA5ABF4F6C93AA
:1035C0008F5F8083F801EB5AFF4F8081882331F4AD
:1035D000F801EC5AFF4F80818627808380E00F90AE
:1035E000DF91CF911F910F9108954F925F926F924B
:1035F0007F928F929F92AF92BF92CF92DF92EF9283
:10360000FF920F931F93CF93DF93CDB7DEB76497ED
:103610000FB6F894DEBF0FBECDBF69837A838B836C
:103620009C83CA01B90127013801A60195010E94B6
:10363000482F25E33AEF4EE85CE30E94CA31862E1C
:10364000C72E8C01982F482D5C2D692F712FCB012F
:10365000BA010E942D32698B7A8B8B8B9C8B882DC3
:103660009C2DA02FB12FBC01CD010E9413306D8382
:103670007E838F83988769817A818B819C8125E302
:103680003AEF4EE85CE30E94CA31E62E872EC82E40
:10369000092FC301B20125E33AEF4EE85CE30E9433
:1036A000CA31F62E172F482EB92E8E2D982DAC2DFF
:1036B000B02FBC01CD010E942D3269837A838B83A8
:1036C0009C838E2D982DAC2DB02FBC01CD010E9476
:1036D000133069877A878B879C878F2D912FA42D34
:1036E000BB2DBC01CD010E942D326D877E878F8757
:1036F000988B8F2D912FA42DBB2DBC01CD010E9445
:1037000013306B017C0169857A858B859C852D85BD
:103710003E854F8558890E94CA314B015C01698101
:103720007A818B819C81A70196010E94CA312D81EB
:103730003E814F8158850E94CA319B01AC01C50171
:10374000B4010E94482FB62FA72F382F292FFD0133
:10375000C9014F2F5E2F692F782FCB01BA01A90124
:103760000F2F1E2F252F342FA90198010E94CA3137
:10377000862EB72E482EA92EC701B60129893A896F
:103780004B895C890E94CA31B62FA72F382F292F69
:10379000FD01C9014F2F5E2F692F782FCB01BA0190
:1037A000A9010F2F1E2F252F342FA90198010E9448
:1037B000CA319B01AC01882D9B2DA42DBA2DBC01D3
:1037C000CD010E94492F462F572F682F792FCB010B
:1037D000BA010E9437322B013C0169817A818B81C9
:1037E0009C812D853E854F8558890E94CA314B01A9
:1037F0005C0169857A858B859C85A70196010E946D
:10380000CA312D813E814F8158850E94CA319B016A
:10381000AC01C501B4010E94492F9B01AC01C30159
:10382000B2010E94BC2F26E73BE742EC5AE40E941B
:10383000CA31462F572F682F792FCB01BA016496D2
:103840000FB6F894DEBF0FBECDBFDF91CF911F91B1
:103850000F91FF90EF90DF90CF90BF90AF909F902F
:103860008F907F906F905F904F9008950F931F936C
:10387000CF93DF93EC0189016115710549F08889C7
:103880009989AA89BB89FB0180839183A283B38331
:103890004115510549F0888D998DAA8DBB8DFA018E
:1038A00080839183A283B3830115110519F1C45B51
:1038B000DF4F88819981AA81BB818F3FFFEF9F07EE
:1038C000FFEFAF07FFEFBF0769F00E94D41EDC01D6
:1038D000CB01488159816A817B81841B950BA60BA2
:1038E000B70B03C08FEF9FEFDC01F801808391835A
:1038F000A283B383DF91CF911F910F9108950F930E
:103900001F93CF93DF93EC0189016115710549F095
:1039100088859985AA85BB85FB0180839183A283D5
:10392000B3834115510549F088819981AA81BB81F2
:10393000FA0180839183A283B3830115110519F1E4
:10394000CC5BDF4F88819981AA81BB818F3FFFEFDC
:103950009F07FFEFAF07FFEFBF0769F00E94D41E7C
:10396000DC01CB01488159816A817B81841B950BE5
:10397000A60BB70B03C08FEF9FEFDC01F80180832C
:103980009183A283B383DF91CF911F910F9108950B
:103990002F923F924F925F926F927F928F929F925F
:1039A000AF92BF92CF92DF92EF92FF920F931F934D
:1039B000CF93DF93CDB7DEB72C970FB6F894DEBF69
:1039C0000FBECDBF3B012A011901FA86E986DC86CC
:1039D000CB869401BE016B5F7F4FAE014F5F5F4F9F
:1039E0000E947F1C61147104D1F06D817E818F81F2
:1039F000988524E630E040E050E00E947A39DC010E
:103A0000CB019C01813591051CF08CE697E002C04A
:103A100080ED97E0820F931FF3019183808341141F
:103A20005104A9F06D817E818F819885F4E6CF2EB7
:103A3000D12CE12CF12CA70196010E947A39CA0100
:103A4000B901A70196010E947A39F201608321141D
:103A5000310461F06D817E818F81988520E137E2AC
:103A600040E050E00E947A39F101208301151105F0
:103A700061F069817A818B819C8120E432E44FE09E
:103A800050E00E947A39F801208389859A85009751
:103A9000A9F069817A818B819C8120E137E240E045
:103AA00050E00E947A39CA01B90124E630E040E0D2
:103AB00050E00E947A39E985FA8560838B859C8580
:103AC0000097B1F069817A818B819C81E4E6CE2EEA
:103AD000D12CE12CF12CA70196010E947A39CA0160
:103AE000B901A70196010E947A39EB85FC856083B4
:103AF000A114B10461F069817A818B819C8124E6F3
:103B000030E040E050E00E947A39F50160832C9665
:103B10000FB6F894DEBF0FBECDBFDF91CF911F91DE
:103B20000F91FF90EF90DF90CF90BF90AF909F905C
:103B30008F907F906F905F904F903F902F9008955F
:103B4000FC0160A171A182A193A16F3FF9EC7F07F5
:103B5000FAE98F07FBE39F0749F00E94B13020E0AC
:103B600030E048EC52E40E94163004C060E074E299
:103B700084E799E4382F292F862F972FA32FB22F70
:103B8000BC01CD010895FC0160A571A582A593A596
:103B90006F3FF9EC7F07FAE98F07FBE39F0749F0D6
:103BA0000E94AF3020E030E048EC52E40E94163032
:103BB00004C060E070E080E89FEB382F292F862F4B
:103BC000972FA32FB22FBC01CD010895CF92DF9282
:103BD000EF92FF920E94C31D6B017C0120E030E058
:103BE00040E85FEB0E940F30882349F0C701B6011F
:103BF00026E53EE04DEE5FE30E94CA3104C060E07E
:103C000070E080E89FEB382F292F862F972FA32F66
:103C1000B22FBC01CD01FF90EF90DF90CF900895BF
:103C20008230E8F4E82FF0E0EE0FFF1FEF5DF94F70
:103C300071836083813041F0809169008C7F842B97
:103C400080936900E89A089580916900440F551F98
:103C5000440F551F837F842B80936900E99A089550
:103C60001F920F920FB60F9211242F933F934F93F1
:103C70005F936F937F938F939F93AF93BF93EF93D4
:103C8000FF938091210690912206009729F0E09100
:103C90002106F09122060995FF91EF91BF91AF9116
:103CA0009F918F917F916F915F914F913F912F9154
:103CB0000F900FBE0F901F9018951F920F920FB686
:103CC0000F9211242F933F934F935F936F937F93A2
:103CD0008F939F93AF93BF93EF93FF9380912306AE
:103CE00090912406009729F0E0912306F091240694
:103CF0000995FF91EF91BF91AF919F918F917F9126
:103D00006F915F914F913F912F910F900FBE0F9048
:103D10001F9018951F920F920FB60F9211242F9398
:103D20003F938F939F93AF93BF938091250690917C
:103D30002606A0912706B091280630912D06232F44
:103D40002A5F2D3720F40296A11DB11D05C0232F37
:103D500027570396A11DB11D20932D06809325069C
:103D600090932606A0932706B093280680912906F3
:103D700090912A06A0912B06B0912C060196A11DC8
:103D8000B11D8093290690932A06A0932B06B09329
:103D90002C06BF91AF919F918F913F912F910F90E2
:103DA0000FBE0F901F9018950F931F938FB7F89425
:103DB00000912506109126062091270630912806AD
:103DC0008FBFB801C9011F910F9108950F931F93E1
:103DD0009FB7F8940091290610912A0620912B068E
:103DE00030912C0686B5A89B06C08F3F21F00F5F4F
:103DF0001F4F2F4F3F4F9FBF322F212F102F0027D4
:103E0000080F111D211D311D43E0000F111F221F3E
:103E1000331F4A95D1F7B801C9011F910F91089539
:103E2000CF92DF92EF92FF92CF93DF936B017C01F1
:103E30000E94E61EDC01CB01EC010FC00E94E61ED1
:103E40006C1B7D0B83E0683E780738F00894C1084E
:103E5000D108E108F108C851DC4FC114D104E104D4
:103E6000F10461F7DF91CF91FF90EF90DF90CF9059
:103E70000895789484B5826084BD84B5816084BDE2
:103E800085B5826085BD85B5816085BDEEE6F0E0D3
:103E9000808181608083E1E8F0E01082808182602F
:103EA0008083808181608083E0E8F0E080818160B0
:103EB0008083E1EBF0E0808184608083E0EBF0E0E0
:103EC000808181608083EAE7F0E080818460808384
:103ED000808182608083808181608083808180682E
:103EE00080831092C10008958093B80108958E30A8
:103EF00008F08E5087709091B8019295990F990FA4
:103F0000907C982B90937C0080917A0080648093C1
:103F10007A0080917A0086FDFCCF809178009091A4
:103F20007900392F20E090E0822B932B0895833085
:103F300071F0843028F48130A1F0823021F514C072
:103F40008630B1F08730D1F08430E9F404C080913C
:103F500080008F7703C0809180008F7D80938000E8
:103F6000089584B58F7702C084B58F7D84BD089590
:103F70008091B0008F778093B00008958091B00059
:103F80008F7D8093B000089590E0FC01E550FD4FD7
:103F90002491815F9C4FFC018491882341F190E042
:103FA000880F991FFC01E95CFC4F45915491DA019F
:103FB000835D9C4FFC0185919491FC019FB7F8941F
:103FC0008C91662331F4209582238C938081822307
:103FD00008C0623049F4322F309583238C9380815E
:103FE000822B80839FBF0895822B8C939FBF08955F
:103FF0000F931F93CF93DF930F92CDB7DEB7282F88
:1040000030E0F901E951FD4F8491F901E550FD4F90
:104010001491F901E15FFC4F04910023D1F0882352
:1040200021F069830E94971F6981E02FF0E0EE0F75
:10403000FF1FE35DFC4F85919491DC019FB7F894DD
:104040008C91662319F41095812301C0812B8C93E8
:104050009FBF0F90DF91CF911F910F910895FC01A9
:1040600024853585F901E05CFF4F808191812E5BCD
:104070003F4FF90120813181821B930B8F73907028
:104080000895FC0144855585FA01E05CFF4F80816D
:104090009181FA01EE5BFF4F2081318182179307F6
:1040A00041F00190F081E02DE40FF51F808190E058
:1040B00008958FEF9FEF0895FC0144855585FA011F
:1040C000E05CFF4F20813181FA01EE5BFF4F808180
:1040D00091812817390779F0A081B181A40FB51F0C
:1040E0008C91208131812F5F3F4F2F73307031834E
:1040F000208390E008958FEF9FEF0895FC0181A148
:10410000882329F0A489B5898C9186FFFBCF11A261
:104110000895CF93DF93DC011E964D915C911F971C
:10412000EA01C05CDF4F288139812F5F3F4F2F7339
:104130003070FA01EE5BFF4F8081918128173907BB
:10414000D9F3E881F981E40FF51F60831E96ED91A4
:10415000FC911F97E05CFF4F318320835696ED91D1
:10416000FC915797208181E090E05F960C905F97DB
:1041700002C0880F991F0A94E2F7282B208381E060
:1041800091968C9391975496ED91FC9155978081DF
:104190008064808381E090E0DF91CF91089508955D
:1041A0001F920F920FB60F9211242F933F934F93AC
:1041B0008F939F93EF93FF938091C00082FD1CC06B
:1041C0004091C6008091D4069091D50601968F73D8
:1041D00090702091D6063091D7068217930771F020
:1041E000E091D406F091D506EC56F94F40839093B8
:1041F000D5068093D40602C08091C600FF91EF914E
:104200009F918F914F913F912F910F900FBE0F90E3
:104210001F9018958EE296E00E942F20009711F0D3
:104220000E94CF2008951F920F920FB60F92112473
:104230002F933F938F939F93EF93FF93209190063B
:104240003091910680919206909193062817390734
:1042500031F48091C1008F7D8093C10014C0E09142
:104260009206F0919306E05BF94F208180919206CF
:104270009091930601968F7390709093930680931C
:1042800092062093C600FF91EF919F918F913F91ED
:104290002F910F900FBE0F901F9018957F928F92C5
:1042A0009F92AF92BF92CF92DF92EF92FF920F93C5
:1042B0001F93CF93DF93EC016A017B017724739402
:1042C000EC89FD8981E090E008A002C0880F991F69
:1042D0000A94E2F7808360E874E88EE190E0A70139
:1042E00096010E947A3989019A01015010402040BC
:1042F0003040369527951795079520E4822E22E4C5
:10430000922E2FE0A22EB12C14C07724EC89FD89C7
:104310001082C501B401A70196010E947A39890172
:104320009A0101501040204030403695279517954E
:10433000079580E10030180710F0772031F7E88901
:10434000F9891083EA89FB89008319A2EE89FF8924
:10435000408121E030E0C9010C8C02C0880F991F18
:104360000A94E2F7482B4083EE89FF894081C90116
:104370000D8C02C0880F991F0A94E2F7482B4083E6
:10438000EE89FF894081C9010E8C02C0880F991FF8
:104390000A94E2F7482B4083EE89FF8980810F8CD5
:1043A00002C0220F331F0A94E2F7209528232083AE
:1043B000DF91CF911F910F91FF90EF90DF90CF9001
:1043C000BF90AF909F908F907F900895109231068C
:1043D0001092300688EE93E0A0E0B0E080933206C1
:1043E00090933306A0933406B0933506E0E3F6E0ED
:1043F00081EC93E09293829384E996E09587848799
:1044000080E596E09787868785EC90E0918B808B9E
:1044100084EC90E0938B828B80EC90E0958B848B86
:1044200081EC90E0978B868B82EC90E0918F808F6F
:1044300086EC90E0938F828F84E0848F83E0858F79
:1044400087E0868F85E0878F81E080A30895CF92F3
:10445000DF92EF92FF920F931F93CF93DF936C0144
:104460007B01EA0100E010E00EC0D7016D917D01F3
:10447000D601ED91FC910190F081E02DC6010995E6
:10448000080F191F2197209781F7C801DF91CF915D
:104490001F910F91FF90EF90DF90CF9008956115DD
:1044A000710589F0DB010D900020E9F7AD01415065
:1044B0005040461B570BDC01ED91FC910280F381CB
:1044C000E02D0995089580E090E008950E944F2224
:1044D0000895DC01ED91FC910190F081E02D0995AA
:1044E00008950F931F93CF93DF938C016DE00E948B
:1044F0006922EC01C8016AE00E9469228C0F9D1FAD
:10450000DF91CF911F910F9108950F931F93CF9338
:10451000DF938C010E944F22EC01C8010E9471229E
:104520008C0F9D1FDF91CF911F910F9108954F9296
:104530005F926F927F92AF92BF92CF92DF92EF9293
:10454000FF920F931F93CF93DF93CDB7DEB7A19761
:104550000FB6F894DEBF0FBECDBF5C01E42ECB01D9
:10456000F22E19A221E02F1510F03AE0F32E21E2ED
:10457000C22ED12CCC0EDD1E4F2C55246624772460
:1045800003C0E02E512FC9016E2D752FA30192019A
:104590000E947A3989019A01F09E802D1124E81A2F
:1045A0008E2D0894C108D1088A3010F4805D01C0B6
:1045B000895CF6018083011511052105310509F794
:1045C000C501B6010E944F22A1960FB6F894DEBF36
:1045D0000FBECDBFDF91CF911F910F91FF90EF9054
:1045E000DF90CF90BF90AF907F906F905F904F9093
:1045F00008952115310549F4DC01ED91FC910190FC
:10460000F081E02D642F099508950E949722089566
:10461000CF92DF92EF92FF920F931F93CF93DF938E
:10462000EC016A017B012115310541F4E881F98132
:104630000190F081E02D642F09951AC02A303105D0
:10464000A9F477FF12C06DE20E9469228C01442711
:104650005527BA014C195D096E097F09CE012AE080
:104660000E949722800F911F03C02AE00E94972288
:10467000DF91CF911F910F91FF90EF90DF90CF903E
:1046800008950F931F93CF93DF938C019A01CB0171
:10469000AC01662757FD6095762FC8010E9408235C
:1046A000EC01C8010E9471228C0F9D1FDF91CF91F8
:1046B0001F910F9108950E94391F0E944C04CAE077
:1046C000D1E20E9459072097E1F30E940A21F9CF15
:1046D00020915A0730915B0728173907B9F4909158
:1046E000D8068091D9069817A1F0E091D806F0E09D
:1046F000E652F94F80812091D80630E02F5F3F4F7E
:104700002F7730702093D80690E008958FEF9FEFB9
:1047100008958FEF9FEF089520915A0730915B071E
:104720002817390771F49091D8068091D906981707
:1047300059F0E091D806F0E0E652F94F808190E020
:1047400008958FEF9FEF08958FEF9FEF08952091C9
:104750005A0730915B072817390739F48FB7F89457
:104760001092D9061092D8068FBF089520915A074B
:1047700030915B072817390771F48091D906209191
:10478000D80690E080589F4F821B910960E870E046
:104790000E946739089580E090E0089520E0019735
:1047A0002FEF8F3F9207D9F70895FC0180915A07A8
:1047B00090915B078E179F0781F0838D8E7F838F8B
:1047C0008FB7F8941092D9061092D806F0935B0731
:1047D000E0935A078FBF81E0089580E00895EF923B
:1047E000FF920F931F93CF93DF93EC018B8DEE8598
:1047F000FF859D8581FF04C08081892329F448C0FD
:104800008081892309F044C08B899C890E94CE2332
:1048100028E0E22EF12C01E010E08D899E890E94B3
:10482000CE23EE85FF8580819D85892311F0102B95
:1048300003C0802F80951823000F0894E108F10829
:10484000E114F10451F78F89988D0E94CE238B8D4E
:1048500081FD10958091D9062091D80690E00196AF
:104860008F77907030E08217930779F0E091D90646
:10487000F0E0E652F94F10838091D90690E001965E
:104880008F7790708093D90603C08B8D81608B8F5A
:10489000DF91CF911F910F91FF90EF900895FC0150
:1048A000A189B2899089662329F42C91892F80955A
:1048B000822302C08C91892B8C930895DF92EF9212
:1048C000FF920F931F93CF93DF93EC01F62E898D08
:1048D0009A8D009739F481E090E09B838A8380E091
:1048E00090E047C0EFB6F8948B8D61E081FF60E007
:1048F000CE010E944F24898D9A8D04960E94CE236A
:104900008B8D08E010E0DD24D39481FF15C08D2D40
:104910008F2119F0CE0160E002C0CE0161E00E945B
:104920004F24898D9A8D0E94CE23DD0C01501040BA
:1049300071F7CE0160E014C08D2D8F2119F0CE01EA
:1049400061E002C0CE0160E00E944F24898D9A8D03
:104950000E94CE23DD0C0150104071F7CE0161E0C2
:104960000E944F24EFBE898D9A8D0E94CE2381E054
:1049700090E0DF91CF911F910F91FF90EF90DF902A
:10498000089580915A0790915B07009711F00E945B
:10499000EF2308951F920F920FB60F9211242F93B9
:1049A0003F934F935F936F937F938F939F93AF93B7
:1049B000BF93EF93FF930E94C124FF91EF91BF91AA
:1049C000AF919F918F917F916F915F914F913F91A7
:1049D0002F910F900FBE0F901F9018951F920F925E
:1049E0000FB60F9211242F933F934F935F936F93C2
:1049F0007F938F939F93AF93BF93EF93FF930E9407
:104A0000C124FF91EF91BF91AF919F918F917F91C1
:104A10006F915F914F913F912F910F900FBE0F902B
:104A20001F9018951F920F920FB60F9211242F937B
:104A30003F934F935F936F937F938F939F93AF9326
:104A4000BF93EF93FF930E94C124FF91EF91BF9119
:104A5000AF919F918F917F916F915F914F913F9116
:104A60002F910F900FBE0F901F9018951F93CF930B
:104A7000DF93EC01162F862F61E00E94C41F812F67
:104A800061E00E94F81F812F90E0FC01E550FD4F8E
:104A9000E491E88BFC01E15FFC4FE491F0E0EE0F64
:104AA000FF1FE35DFC4F85919491898B9A8BDF9179
:104AB000CF911F9108951F93CF93DF93EC01162F91
:104AC000862F60E00E94C41F8B8D81FD04C0812F62
:104AD00061E00E94F81F1C87812F90E0FC01E550E7
:104AE000FD4FE491ED87FC01E15FFC4FE491F0E0C4
:104AF000EE0FFF1FED5DFC4F859194918E879F8790
:104B0000DF91CF911F9108951F93CF93DF93EC0115
:104B1000162F1B821A8288EE93E0A0E0B0E08C830F
:104B20009D83AE83BF8381ED93E0998388831C8A44
:104B30001B8A1E8A1D8A188E1F8A1A8E198E8B8DCB
:104B40002170220F8C7F822B8B8FCE01642F0E94CD
:104B50003625CE01612F0E945B25DF91CF911F91F9
:104B60000895CF92DF92EF92FF92CF93DF93EC0103
:104B70006A017B011A8E198E188E1F8A1E8A1D8A61
:104B80001C8A1B8A20E030E0A901440F551F420F08
:104B9000531F440F551F440F551FFA01EF5BFC4F85
:104BA00085919591A591B4918C159D05AE05BF0594
:104BB000E9F4FA01EB5BFC4F859194918B8B9C8B14
:104BC000FA01E95BFC4F859194918D8B9E8BFA01E4
:104BD000E75BFC4F859194918F8B988F455B5C4F81
:104BE000FA0185919491898F9A8F06C02F5F3F4F6C
:104BF0002D30310509F0C8CF8F89988D009709F4C1
:104C000048C09C85963108F040C0209168009830DB
:104C100020F09E3020F082E003C084E001C081E0FB
:104C2000822B809368005C85583048F05E3060F0DD
:104C30005631C8F1E0E0F0E0A0E0B0E009C0EDE6F8
:104C4000F0E0ADE6B0E004C0EBE6F0E0ABE6B0E0EB
:104C50004C91583040F481E090E002C0880F991FD9
:104C60005A95E2F710C0252F30E05E3018F4285036
:104C7000304002C02E50304081E090E002C0880FEA
:104C8000991F2A95E2F7842B8083898D9A8D0E9443
:104C9000CE23CE010E94D523DF91CF91FF90EF90DC
:104CA000DF90CF900895ECE6F0E0ACE6B0E0D0CF36
:104CB000FC014485463150F5483028F04E3030F044
:104CC000ECE6F0E005C0EDE6F0E002C0EBE6F0E077
:104CD0005081483040F481E090E002C0880F991F75
:104CE0004A95E2F710C0242F30E04E3018F42850D7
:104CF000304002C02E50304081E090E002C0880F6A
:104D0000991F2A95E2F7809585238083089521EDE8
:104D100033E0FC01318320830E9458260895CB01A3
:104D20000E944E360895CB01642F0E945636089596
:104D3000FC0175836483718760875783468353873B
:104D40004287158A158614861786168621E0248BDD
:104D50008FEF9FEF938B828B918B808B268B0895A7
:104D60002F923F924F925F926F927F928F929F927B
:104D7000AF92BF92CF92DF92EF92FF920F931F9369
:104D8000CF93DF9300D000D0CDB7DEB72C017C836A
:104D90006B836A0159011701C801841B950B97FFAA
:104DA00003C0909581959F4F95014B815C81241B99
:104DB000350B37FF03C0309521953F4F41E0642EFE
:104DC000712C2817390714F06624772461147104B4
:104DD00059F09A2D8B2D5801092F182F9B818C810A
:104DE000DC82CB82C92ED82E8B819C81A816B90675
:104DF0005CF49C2D8D2D6801092F182F9B818C81CF
:104E0000BC82AB82A92EB82ED501EB81FC81AE1BF2
:104E1000BF0BBA83A98348018C189D0897FE04C074
:104E2000909481949108939489819A8162E070E0D2
:104E30000E9467397B01C016D1061CF401E010E026
:104E400027C00FEF1FEF24C0D201ED91FC91119705
:104E50000480F581E02DC2016114710421F0B601D6
:104E60004B815C8103C06B817C81A6019101099516
:104E7000E818F908F7FE06C0C00ED11EE981FA81D4
:104E8000EE0EFF1E2B813C812F5F3F4F3C832B8317
:104E90004B815C81A416B506BCF60F900F900F9065
:104EA0000F90DF91CF911F910F91FF90EF90DF90C6
:104EB000CF90BF90AF909F908F907F906F905F90BA
:104EC0004F903F902F9008956F927F928F929F9274
:104ED000AF92BF92CF92DF92EF92FF920F931F9308
:104EE000CF93DF93EC016B015A0139014801E8814E
:104EF000F9810484F585E02D87010995E881F98120
:104F0000A501480D591D415050400484F585E02D00
:104F1000CE01B60193010995E881F9810284F385F8
:104F2000E02DCE01B601A50194010995E881F98132
:104F3000B601660D771D615070400284F385E02D47
:104F4000CE01A50194010995DF91CF911F910F9199
:104F5000FF90EF90DF90CF90BF90AF909F908F9099
:104F60007F906F900895CF92DF92EF92FF920F9310
:104F70001F93CF93DF93EB01D9017801FC012081CE
:104F80003181A40FB51F1197F901C084D1849E010E
:104F90008D01F6010995DF91CF911F910F91FF903F
:104FA000EF90DF90CF900895EF92FF920F931F93B1
:104FB000CF93DF93DA017801EC01E881F981260FC4
:104FC000371F215030400084F185E02D8D01099577
:104FD000DF91CF911F910F91FF90EF9008956F9205
:104FE0007F928F929F92AF92BF92CF92DF92EF9279
:104FF000FF920F931F93CF93DF935C013A016901F6
:105000004801EB01C60ED71E0DC0D501ED91FC91F4
:105010000284F385E02DC501BE01A301940187013F
:1050200009952196CC15DD0584F3DF91CF911F9171
:105030000F91FF90EF90DF90CF90BF90AF909F9037
:105040008F907F906F9008952F923F924F925F9232
:105050006F927F928F929F92AF92BF92CF92DF9288
:10506000EF92FF920F931F93CF93DF93CDB7DEB7ED
:105070002F970FB6F894DEBF0FBECDBF5C015E83E5
:105080004D83422F18870F83FA86E986DC01189634
:105090008D919C911997681779070CF0B1C01A96F9
:1050A0008D919C911B97ED81FE81E817F9070CF01B
:1050B000A7C02C2D30E0C901880F991F880F991FB8
:1050C000820F931F860F971F181619060CF098C0B1
:1050D000C90113E0880F991F1A95E1F78E0F9F1FE2
:1050E000181619060CF08CC0842F90E04C01880C27
:1050F000991C880C991C880E991EC9821A821B0162
:105100007C836B8330E02C2D353029F0F401E352A1
:10511000FC4FE49101C0E0E0C22C3D866D807E80B2
:105120002301DD243F872E872E2F30E03C872B87FD
:10513000E0FF1EC0D501ED91FC91BE85B13051F468
:105140000480F581E02DC5016B817C81A2012F8156
:10515000388524C00088F189E02DC5016C2D7D853E
:10516000A3012E8530E0022F10E0EF80F88425C0E7
:10517000E985FA852F813885E217F307F9F0D50123
:10518000ED91FC91BE85B13059F40480F581E02D9C
:10519000C5016B817C81A20129853A8509950EC0E4
:1051A0000088F189E02DC5016C2D7D85A3012E8538
:1051B00030E0022F10E0E984FA840995EB85FC8544
:1051C000F595E795D39429813A81620E731E089470
:1051D000411C511C38E0D31609F0A6CF3F852E851F
:1051E0003F5F89819A81280E391EAB81BC8111965F
:1051F000BC83AB830894811C911C363009F084CFAA
:105200002F960FB6F894DEBF0FBECDBFDF91CF91C2
:105210001F910F91FF90EF90DF90CF90BF90AF90D4
:105220009F908F907F906F905F904F903F902F90C6
:105230000895CF92EF92FF920F931F93CF93DF9336
:10524000EC01262F6A3061F42C8930E013E0220F44
:10525000331F1A95E1F78E859F85820F931F3AC001
:105260006D30E1F14C855D85EE85FF8508891989F2
:10527000EA88FB88BA01AF01CC880E9424284C89B7
:1052800050E09A01220F331F240F351F220F331FC6
:105290008C859D85280F391F3D872C878E89882313
:1052A000E9F08AEF9FEF489FB001499F700D589F2A
:1052B000700D112488859985680F791F621773070F
:1052C0006CF483E0440F551F8A95E1F78E859F8526
:1052D000840F951F9F878E871D861C8681E090E036
:1052E000DF91CF911F910F91FF90EF90CF90089594
:1052F000FC0175876487578746870895662309F4FC
:1053000061E0FC01648B0895FC01718B608B738BF1
:10531000628B0895FC01718B608B538B428B0895D7
:10532000FC0185898370858B0895FC0180859185BA
:105330000895FC01828593850895CF92DF92EF92C4
:10534000FF920F931F93CF93DF93EC017B018A01B0
:10535000690177FD64C00E949529E816F9060CF0F2
:105360005EC017FD5CC0CE010E949929081719077D
:105370000CF055C049C08C819D81801B910B870129
:105380007C010894E108F10818C08C819D819C0182
:105390002E193F0979010894E108F1088E819F8157
:1053A0009C01201B310B890106C08E819F818E19C3
:1053B0009F0978018C0101501040C80168E070E03D
:1053C0000E946739FB01F695FE2FEE27F795E795CA
:1053D000EE0DFF1DE754FE4F31E0C316D10441F43A
:1053E00002C0CC0CDD1C8A95E2F780818C290AC0B2
:1053F00021E030E002C0220F331F8A95E2F72095AA
:105400008081822380830BC0CE010E94902982304C
:1054100009F4BBCF833049F2813079F6ACCFDF910C
:10542000CF911F910F91FF90EF90DF90CF90089553
:10543000EF920F93FC011382128281EE93E091832D
:105440008083E48E038F228F418F608F0F91EF90C6
:10545000089580E092E0E9EBF1E0DF019C011D920C
:1054600021503040E1F70895FC0188E090E030E8F9
:10547000A78DB0A14C9126A1209524232C93432FD6
:105480004623A58DB68D25A1442321F04C91422BB6
:105490004C9304C04C91209524232C93A78DB0A14C
:1054A0002C9146A1242B2C933695019709F708954A
:1054B0001F93CF93DF93EC01162F888D8F3FF1F070
:1054C000E9A1FAA180819FA1892B8083EBA1FCA196
:1054D000908188A5809589238083E9A1FAA1908194
:1054E0008FA1809589238083CE010E94342AE9A16F
:1054F000FAA180819FA1892B808316C06F897727AD
:1055000067FD70958DE597E00E94172D8DE597E07A
:1055100060E00E94D32C8DE597E0612F0E94D32C90
:105520008DE597E00E942D2DDF91CF911F91089579
:10553000662311F067EA01C066EA0E94582A0895BE
:105540000F931F93CF93DF93EC01162F042F60E886
:1055500070E040E250E00E9498260F8B888D8F3FCC
:1055600009F468C061E00E94C41F898D61E00E9457
:10557000C41F8A8D61E00E94C41F8C8D61E00E946F
:10558000C41F298D332727FD3095F901E15FFC4FBA
:10559000E491F0E0EE0FFF1FE35DFC4F85919491E5
:1055A0008F8F98A325503D4FF90124912EA3288D6C
:1055B000332727FD3095F901E15FFC4FE491F0E0DE
:1055C000EE0FFF1FE35DFC4F859194918D8F9E8FB1
:1055D00025503D4FF90124912DA32C8D332727FD14
:1055E0003095F901E15FFC4FE491F0E0EE0FFF1F11
:1055F000E35DFC4F8591949189A39AA325503D4F7B
:10560000F90124912FA32A8D332727FD3095F90125
:10561000E15FFC4FE491F0E0EE0FFF1FE35DFC4F14
:10562000859194918BA39CA325503D4FF901249122
:1056300028A704C08DE597E00E94022D8B8D61E0C4
:105640000E94C41F8B8D61E00E94F81F61E070E032
:1056500080E090E00E94101F8B8D60E00E94F81F98
:105660006AE070E080E090E00E94101F8B8D61E0A6
:105670000E94F81FCE016EEA0E94582ACE0165ED05
:105680000E94582ACE0160E80E94582ACE0168EA9A
:105690000E94582ACE016FE10E94582ACE0163ED84
:1056A0000E94582ACE0160E00E94582ACE0160E490
:1056B0000E94582ACE016DE80E94582ACE0111306E
:1056C00011F460E101C064E10E94582ACE0160E259
:1056D0000E94582ACE0160E00E94582ACE0160EA5A
:1056E0000E94582ACE0160EC0E94582ACE016AED31
:1056F0000E94582ACE0162E00E94582ACE0161E839
:105700000E94582ACE016FE80E94582ACE0169ED06
:105710000E94582ACE01113011F462E201C061EFFB
:105720000E94582ACE016BED0E94582ACE0160E4F7
:105730000E94582ACE0164EA0E94582ACE0166EAE5
:105740000E94582ACE016FEA0E94582ADF91CF9119
:105750001F910F910895BF92CF92DF92EF92FF9227
:105760000F931F93CF93DF938C0160E00E94582A20
:10577000C80160E10E94582AC80160E40E94582ACA
:10578000D80158968C9158978F3F09F443C0919651
:10579000ED91FC919297808197969C919797892B98
:1057A00080839396ED91FC919497808198969C913B
:1057B0009897892B80839196ED91FC919297908197
:1057C00097968C9180958923808399EBE92E91E0BF
:1057D000F92EC0E0D0E0F70161917F01C8010E947D
:1057E000342A2196F2E0C030DF07A9F7C0E0D2E00A
:1057F000C80160E00E94342A2197D1F7D801919620
:10580000ED91FC919297808197969C919797892B27
:10581000808364C0B090B8008CE08093B800CC2442
:10582000DD24F8016789772767FD70958DE597E09E
:105830000E94172DE0915D07F0915E070190F081C5
:10584000E02D8DE597E060E40995EE24FF24E60164
:10585000C754DE4FFE01EE0DFF1D8DE597E0608120
:105860000E94D32C0894E11CF11CF0E1EF16F10426
:1058700089F780E190E0C80ED91E8DE597E00E947F
:105880002D2D90E0C91692E0D90659F6C0E2D0E07D
:10589000D80157966C91772767FD70958DE597E055
:1058A0000E94172DE0915D07F0915E070190F08155
:1058B000E02D8DE597E060E4099580E1E82E8DE527
:1058C00097E060E00E94D32CEA94C9F78DE597E059
:1058D0000E942D2D2197E1F6B092B800DF91CF9173
:1058E0001F910F91FF90EF90DF90CF90BF900895A0
:1058F00080918D0790E020918E07821B9109089579
:1059000020918E0780918D07281750F4E22FF0E048
:10591000E157F84F808190E02F5F20938E07089524
:105920008FEF9FEF0895E0918E0780918D07E81724
:1059300030F4F0E0E157F84F808190E008958FEF68
:105940009FEF08950895CF92DF92EF92FF920F9309
:105950001F93CF93DF936C01CB018A0120916907DC
:105960002223A1F07B01C0E0D0E00CC0D7016D91F3
:105970007D01D601ED91FC910190F081E02DC601F1
:1059800009952196C017D10789F703C0642F0E949B
:10599000B82DC801DF91CF911F910F91FF90EF902B
:1059A000DF90CF900895CF93DF930F92CDB7DEB7FE
:1059B0006983209169072223D1F020916A07203260
:1059C00040F021E030E0FC013383228380E090E06E
:1059D00015C080916B07E82FF0E0E459F84F9981EA
:1059E00090838F5F80936B0780936A0705C0CE0119
:1059F000019661E00E94B82D81E090E00F90DF9168
:105A0000CF91089510928E0710928D0710926B0718
:105A100010926A070E94482D089581E080936907DB
:105A200060938C0710926B0710926A0708950E948A
:105A30000D2D08950F93062F80918C076CE677E06B
:105A400040916A0721E00E94662D10926B07109228
:105A50006A07109269070F91089561E00E941A2D5C
:105A600008951092600710925F0788EE93E0A0E01F
:105A7000B0E08093610790936207A0936307B093AF
:105A8000640787EF93E090935E0780935D07089526
:105A90001092B80781E08093B6071092B50782E1B3
:105AA00061E00E94F81F83E161E00E94F81FE9EBCA
:105AB000F0E080818E7F808380818D7F808380E293
:105AC0008093B80085E48093BC0008950F93413221
:105AD00008F045C09091B8079923E1F792E09093C0
