:100000000C94A8030C943B1E0C94681E0C94CB24F7
:100010000C94EF240C9413250C94D0030C94D0036F
:100020000C94D0030C94D0030C94D0030C94D00304
:100030000C94D0030C94D0030C94D0030C94D003F4
:100040000C94951E0C94D0030C94D8200C9414217D
:100050000C94D0030C94D0030C94D0030C94D003D4
:100060000C94E92D0C94D003AC19C619E619FA19B1
:100070000B1A431A4C1A571A621A6F1A6F1A6F1A10
:100080006F1A6F1A6F1A6F1A6F1A6F1A6F1A6F1A28
:100090006F1A6F1A6F1A6F1A6F1A6F1A6F1A6F1A18
:1000A0006F1A6F1A6F1A6F1AAC19BE19C619E619B2
:1000B000FA190B1A1F1A2A1A351A084AD73B3BCECF
:1000C000016E84BCBFFDC12F3D6C74319ABD568357
:1000D0003DDA3D00C77F11BED9E4BB4C3E916BAA0F
:1000E000AABE000000803F05A84CCDB2D44EB9385E
:1000F00036A9020C50B9918688083CA6AAAA2ABE45
:10010000000000803F476569676965204E616E6F3A
:100110002025730023253034640024504D544B3384
:1001200031342C302C312C302C312C302C302C30E4
:100130002C302C302C302C302C302C302C302C30DF
:100140002C302C302C302C302A32380024504D5496
:100150004B3232302C313030302A31460024504D71
:10016000544B3331332C312A32450D0A0024504D83
:10017000544B3330312C322A32450D0A00253034AD
:100180006425303264253032642E6C6F6700232082
:100190004E4557204C4F470A2320666F726D61749D
:1001A0003D00312E302E32006E616E6F0A232064C6
:1001B00065616474696D653D6F6E0A0023206E6D24
:1001C0003D25732C747A3D25642C636E3D25732C7C
:1001D00063706D663D25642C73743D25642C7373C8
:1001E0003D25642C73683D25642C736D3D25640AA0
:1001F000002425732C253034642C253032642D25C1
:100200003032642D2530326454253032643A253042
:1002100032643A253032645A2C256C642C256C6487
:100220002C256C642C25632C25732C25632C2573BD
:100230002C25632C25732C25632C256C642C2564BC
:10024000002A302558002A255800253032646825B8
:100250003032646D002043504D004E6F20475053A4
:10026000005E00207553762F68002042712F6D329A
:10027000006B6D002D2D002075532F680043504DED
:1002800020002042712F6D32004D783D0075532FB4
:1002900068200044733D0075530057726F6E6720ED
:1002A0006D6F6465202100253032642F2530326463
:1002B00020253032643A253032643A2530326400E9
:1002C0002530346C642E2530346C64002530356C58
:1002D000642E2530346C64004A504E0072656164AF
:1002E0002025732030202564000000000700020153
:1002F00000000304060000000000000000010204EA
:100300000810204080010204081020010204081097
:10031000200404040404040404020202020202038E
:10032000030303030300000000230026002900004C
:10033000000000250028002B0000000000240027FA
:10034000002A0000C20100010005000500030000B2
:10035000E1000001000F000F000D000096000002F8
:100360000019001A001700127A000007002000216F
:10037000001D00807000000B0023002300200000FF
:100380004B00001400370037003400403800001ED6
:10039000004B004B004800802500003200720072C4
:1003A000007000C01200006E00E900E900E6006085
:1003B000090000E500D801D801D501B0040000D340
:1003C00001B403B403B1032C0100006707DD0EDDA7
:1003D0000EDA0E00000000003E5B4F5B3E3E6B4FAE
:1003E0006B3E1C3E7C3E1C183C7E3C181C577D57C7
:1003F0001C1C5E7F5E1C00183C1800FFE7C3E7FF73
:100400000018241800FFE7DBE7FF30483A060E2605
:1004100029792926407F050507407F05253F5A3C5D
:10042000E73C5A7F3E1C1C08081C1C3E7F14227FA0
:1004300022145F5F005F5F06097F017F0066899578
:100440006A606060606094A2FFA29408047E040861
:1004500010207E201008082A1C08081C2A08081EE4
:10046000101010100C1E0C1E0C30383E3830060ECA
:100470003E0E06000000000000005F0000000700C4
:100480000700147F147F14242A7F2A122313086480
:100490006236495620500008070300001C22410024
:1004A0000041221C002A1C7F1C2A08083E08080064
:1004B0008070300008080808080000606000201004
:1004C0000804023E5149453E00427F4000724949BE
:1004D00049462141494D331814127F10274545459F
:1004E000393C4A49493141211109073649494936C0
:1004F000464949291E000014000000403400000055
:100500000814224114141414140041221408020186
:100510005909063E415D594E7C1211127C7F4949B2
:1005200049363E414141227F4141413E7F4949494F
:10053000417F090909013E414151737F0808087F45
:1005400000417F41002040413F017F081422417F4C
:10055000404040407F021C027F7F0408107F3E41E4
:1005600041413E7F090909063E4151215E7F09193B
:100570002946264949493203017F01033F40404053
:100580003F1F2040201F3F4038403F631408146342
:1005900003047804036159494D43007F41414102FE
:1005A00004081020004141417F0402010204404040
:1005B000404040000307080020545478407F2844FE
:1005C00044383844444428384444287F38545454E8
:1005D0001800087E090218A4A49C787F08040478F7
:1005E00000447D40002040403D007F102844000032
:1005F000417F40007C047804787C08040478384407
:10060000444438FC1824241818242418FC7C0804BA
:100610000408485454542404043F44243C404020DB
:100620007C1C2040201C3C4030403C442810284486
:100630004C9090907C4464544C4400083641000037
:100640000077000000413608000201020402004069
:100650007A10F35A00A0724E18090010A5D4E800D1
:1006600000E87648170000E40B54020000CA9A3BE9
:10067000000000E1F505000080969800000040426F
:100680000F000000A08601000000102700000000FD
:10069000E803000000006400000000000A00000001
:1006A00000000100000000002C76D888DC674F08AD
:1006B00023DFC1DFAE59E1B1B796E5E3E453C63AB3
:1006C000E651997696E8E6C28426EB898C9B62ED2A
:1006D000407C6FFCEFBC9C9F40F2BAA56FA5F490E4
:1006E000055A2AF75C936B6CF9676DC11BFCE0E45B
:1006F0000D47FEF520E6B500D0ED902E03009435B1
:1007000077050080841E080000204E0A000000C803
:100710000C333333330F986E12831141EF8D211454
:10072000893BE65516CFFEE6DB18D1844B381BF724
:100730007C1D901DA4BBE424203284725E228100C3
:10074000C9F124ECA1E53D270112E621322D061264
:1007500011241FBECFEFD8E0DEBFCDBF13E0A0E075
:10076000B1E0EEECF3E702C005900D92A83FB107AF
:10077000D9F718E0A8EFB3E001C01D92A231B1078C
:10078000E1F717E0CEE4D7E004C02297FE010E9413
:10079000D639C834D107C9F70E945C230C94D20320
:1007A0000C940000F8940C94DA39EF92FF920F93B6
:1007B0001F938130910569F58BE095E066E047E095
:1007C00025E003E034E0E32E0E94192A83E994E057
:1007D0006AE04BE020E00E9485258EE194E061E034
:1007E0000E94301682E094E068E049E020E00E9438
:1007F000852588EF93E063E974E04CE355E024E35A
:1008000035E009E815E0E4E6EE2EF12C0E9498129E
:100810000AC0009741F482E094E00E94882683E9B0
:1008200094E00E9488261F910F91FF90EF90089509
:100830001F93CF93DF93182FC0E0D0E0219683E978
:1008400094E00E94B723009779F083E994E00E9436
:100850006923AC01112319F02EE330E002C02CE330
:1008600030E04217530751F06AE070E080E090E01A
:100870000E941B1FC83CD10509F704C081E0C83C99
:10088000D10509F480E0DF91CF911F9108958F92F7
:100890009F92AF92BF92CF92DF92EF92FF920F930F
:1008A0001F93CF93DF938DE061E00E94CF1F8EE016
:1008B00060E00E94CF1F82E296E040E855E260E0EF
:1008C00070E00E944F2129E288E190E00FB6F89491
:1008D000A895809360000FBE20936000A89588EFD4
:1008E00093E00E948B1583E994E040E855E260E0D4
:1008F00070E00E94B2258CE061E00E94CF1F83E986
:1009000094E00E94D6238CE060E00E94032064E61D
:1009100070E080E090E00E941B1F8CE061E00E948C
:10092000032081E00E941804882321F481E0809351
:10093000F10403C081E080939204809192048823A3
:1009400031F088EF93E060E071E00E94F11280E006
:1009500090E048E853E160E070E00E941F120E94BE
:100960003A1282E094E040E855E260E070E00E94D4
:10097000B22582E094E00E94D623C9E8D5E004E6DF
:10098000DE01E02F1D92EA95E9F700D000D0ADB767
:10099000BEB71296DC93CE9311978AE191E014963C
:1009A0009C938E9313970E944F340F900F900F904B
:1009B0000F9082E094E0BE010E947822FE01802F19
:1009C00011928A95E9F700D000D0ADB7BEB7129664
:1009D000DC93CE9311978CE491E014969C938E93C4
:1009E00013970E944F340F900F900F900F9082E05A
:1009F00094E0BE010E947822FE01802F11928A9518
:100A0000E9F700D000D0ADB7BEB71296DC93CE9315
:100A100011978DE591E014969C938E9313970E9405
:100A20004F340F900F900F900F9082E094E0BE0132
:100A30000E947822FE0111920A95E9F700D000D0B9
:100A4000ADB7BEB71296DC93CE9311978DE691E0C9
:100A500014969C938E9313970E944F340F900F908F
:100A60000F900F9082E094E0BE010E94782204E390
:100A700015E068EC70E001C0BE01EB0121968DE449
:100A800097E00E949026F80181938F01C03DD10527
:100A900099F7609138057091390580913A059091E8
:100AA0003B056115710581059105F1F10E94B0309A
:100AB0006B017C016091340570913505809136059C
:100AC000909137050E94B0304B015C01C701B6011F
:100AD00020E030E040E752E40E9417309B01AC0177
:100AE000C501B4010E94173020915505309156057B
:100AF00040915705509158050E9417304B015C01F9
:100B0000C701B60120E030E041E655E40E9417300D
:100B10009B01AC01C501B4010E94CB3140E022E051
:100B200009E615E00E949F3283E00E947F1F8BE060
:100B300095E062E04CE30E94A12A8BE095E00E94E0
:100B4000AC2B68EE73E080E090E00E941B1F8BE00E
:100B500095E00E942A2A8BE095E061E070E00E9417
:100B600085298BE095E061E00E947F2900D000D0CC
:100B700000D0EDB7FEB73196C9E6D5E0ADB7BEB748
:100B80001296DC93CE93119785E091E09383828354
:100B90008DE091E0958384830E944F34FE010190A3
:100BA0000020E9F78DB79EB706960FB6F8949EBF62
:100BB0000FBE8DBFEC1BFD0BCF01880F991F8E0F51
:100BC0009F1F880F991F60E870E0681B790B76956E
:100BD00067958BE095E040E050E00E947929809194
:100BE00040050C2FCD2F882329F48BE095E063E19D
:100BF00071E004C08BE095E065E171E00E944B225A
:100C00008BE095E069E675E00E944B228BE095E071
:100C100062E00E947F298BE095E068E270E048E0A6
:100C200050E00E94792900D000D000D0EDB7FEB787
:100C30003196ADB7BEB711960C9311971296CC931F
:100C400084E191E0938382838091520590915305D2
:100C5000958384830E944F34EDB7FEB736960FB666
:100C6000F894FEBF0FBEEDBF8BE095E069E675E03E
:100C70000E944B228BE095E061E00E947F298091E9
:100C80004205882301F1C2E4D5E0FE010190002075
:100C9000E9F7E354F540CF01880F991F8E0F9F1F8E
:100CA000880F991F60E870E0681B790B769567954F
:100CB0008BE095E048E150E00E9479298BE095E0D7
:100CC000BE010E944B228BE095E00E94AC2BC0E05D
:100CD000D4E02197CE010E94C1320097D1F30E9447
:100CE000573382E296E0BE014AE050E00E94422380
:100CF000DF91CF911F910F91FF90EF90DF90CF90F8
:100D0000BF90AF909F908F9008958F929F92BF92C7
:100D1000CF92DF92EF92FF920F931F93CF93DF93C7
:100D2000B82E6A017B014901CB01BA010E94B030A3
:100D300020E030E543EC57E40E9417300E948430F5
:100D4000EB01182F092F20EA36E841E050E00E941D
:100D50003539DC01CB01A7019601281B390B4A0B61
:100D60005B0BCA01B9012AE030E040E050E00E948C
:100D70007B398DB79EB70C97BB2089F00FB6F894DE
:100D80009EBF0FBE8DBFEDB7FEB73196ADB7BEB7F4
:100D900012969C928E92119780EC92E010C00FB642
:100DA000F8949EBF0FBE8DBFEDB7FEB73196ADB7BD
:100DB000BEB712969C928E9211978CEC92E0938320
:100DC0008283C483D5831683078320873187428734
:100DD00053870E944F342DB73EB7245F3F4F0FB665
:100DE000F8943EBF0FBE2DBFDF91CF911F910F91A1
:100DF000FF90EF90DF90CF90BF909F908F900895DD
:100E0000CF92DF92EF92FF920F931F93CF93DF93D6
:100E10000E94B03020E836E948E15BE40E941730D8
:100E20008B01D82FC92FCE01402F512F692F782F3A
:100E3000CB01BA010E947F30882777FD8095982FDB
:100E40000E94B2306B017C019E01802F912FA32F55
:100E5000B22FBC01CD01A70196010E94492F20E0CD
:100E600030E040E752E40E94173020E030E048ECE8
:100E700052E40E94CB31462F572F682F792FCB0198
:100E8000BA01A70196010E944A2F462F572F682FBB
:100E9000792FCB01BA01DF91CF911F910F91FF9074
:100EA000EF90DF90CF9008952F923F924F925F92F4
:100EB0006F927F928F929F92AF92BF92CF92DF926A
:100EC000EF92FF920F931F93CF93DF93CDB7DEB7CF
:100ED000AE970FB6F894DEBF0FBECDBF8EE00E9476
:100EE000821F21E0853F92071CF01092400503C04D
:100EF00081E08093400582E094E00E94D6230E9426
:100F0000DF1E6B017C0100E011C082E094E00E94D2
:100F10006923682F8EE194E00E94771A811101E025
:100F200082E094E00E94B723009779F70E94DF1EC9
:100F3000AB01BC01D701C601841B950BA60BB70BF7
:100F4000C416D506E606F70620F480959095A09580
:100F5000B095883E33E0930730E0A30730E0B30755
:100F600010F00C94E2110E944F12009711F00C94B3
:100F7000E211D6CF8091A901813419F48DE061E0AE
:100F800002C08DE060E00E9403200E944F12009793
:100F900011F40C94E811A8950E948F12698F7A8F32
:100FA0008B8F9C8F0E943A128091BD049091BE0459
:100FB000A091BF04B091C004FC01EE0FFF1FEE0F23
:100FC000FF1FEF53FB4F298D3A8D4B8D5C8D208396
:100FD0003183428353830196A11DB11DBC01CD0114
:100FE0002CE030E040E050E00E947B39DC01CB0196
:100FF0008093BD049093BE04A093BF04B093C0043B
:10100000E1ECF4E080E090E0DC01419151916191EC
:101010007191840F951FA61FB71F34E0E13FF307BE
:10102000A1F7BC01CD010E94B0306B017C0122EB25
:1010300035EC4CEF55E30E94CB319B01AC0160E0F5
:1010400070E080E89FE30E94492F9B01AC01C7013B
:10105000B6010E9417300E9484306D8B7E8B8F8B7F
:10106000988F8091B9049091BA04A091BB04B0917B
:10107000BC04298D3A8D4B8D5C8D820F931FA41F6C
:10108000B51F8093B9049093BA04A093BB04B093A6
:10109000BC048091B1049091B204A091B304B091CA
:1010A000B4040596A11DB11D8093B1049093B204C0
:1010B000A093B304B093B4048091B5049091B604A6
:1010C000A091B704B091B8042D893E894F89588DFD
:1010D00082179307A407B50740F42093B504309313
:1010E000B6044093B7045093B804809134059091AE
:1010F0003505A0913605B0913705298D3A8D4B8D78
:101100005C8D820F931FA41FB51F809334059093AD
:101110003505A0933605B093370580913805909139
:101120003905A0913A05B0913B050596A11DB11D69
:101130008093380590933905A0933A05B0933B0509
:10114000BC01CD0120E13EE040E050E00E947B394F
:10115000DC01CB010097A105B105A1F404E315E082
:1011600068EC70E0780101C0B8018B010F5F1F4F80
:10117000D7014D917D018DE497E00E949426003DBA
:10118000110591F78091AF049091B0048C309105D6
:101190004CF426E52093AA0101969093B004809325
:1011A000AF040EC02D893E894F89588D2115310518
:1011B0004105510511F486E501C081E48093AA013F
:1011C0008091F104882309F042C18CED97E0988763
:1011D0008F831E821D821C821B821A8219828EE1DD
:1011E00094E0BE01695F7F4FAE014A5F5F4F9E0191
:1011F0002B5F3F4F8E010C5F1F4FE3E0EE2EF12C73
:10120000EC0EFD1EF2E0CF2ED12CCC0EDD1E5E01C9
:101210000894A11CB11CA1E18A2E912C8C0E9D1E5C
:101220000E94D31C89899A89AB89BC898F3F3FEF83
:1012300093073FEFA3073FEFB30709F408C14DB78A
:101240005EB74A5050400FB6F8945EBF0FBE4DBF18
:10125000EDB7FEB7319682EF94E0ADB7BEB7129608
:101260009C938E9311978DE791E093838283809175
:10127000520590915305958384838E8186831782CE
:101280008D81808711860E944F3481E08093F10424
:10129000EDB7FEB73A960FB6F894FEBF0FBEEDBF9E
:1012A00083E994E00E94D623A89583E994E067E15E
:1012B00071E00E944B2283E994E062EF74E00E94A7
:1012C0004B2283E994E06DE00E945F2480E00E945D
:1012D0001804882391F48CE060E00E94032064E607
:1012E00070E080E090E00E941B1F8CE061E00E94B3
:1012F000032081E00E941804D7CF00D000D009E677
:1013000015E0ADB7BEB712961C930E9311978EE8F9
:1013100091E014969C938E9313970E944F340F90F4
:101320000F900F900F9083E994E0B8010E944B2238
:1013300000D000D0EDB7FEB71283018382EA91E0BE
:10134000948383830E944F340F900F900F900F90DF
:1013500083E994E0B8010E944B2200D000D0ADB7E1
:10136000BEB712961C930E93119788EA91E01496DB
:101370009C938E9313970E944F340F900F900F9071
:101380000F9083E994E0B8010E944B22EDB7FEB7BD
:1013900074970FB6F894FEBF0FBEEDBFCDB6DEB6A4
:1013A0000894C11CD11C09E815E0128301838CEB61
:1013B00091E0D60113969C938E93129782E495E068
:1013C00015969C938E93149720915F0516962C93F7
:1013D000169717961C9217974E9619969C938E9374
:1013E0001897609155057091560580915705909119
:1013F00058050E947F30DC01CB01F601938782877C
:101400008091640584871586809165058687178697
:101410008091660590916705918B808B809168051E
:10142000828B138A0E944F342DB73EB72C5E3F4FFC
:101430000FB6F8943EBF0FBE2DBF83E994E0B8010C
:101440000E944B2282E296E0B8010E944B2284E681
:10145000E9E8F5E0DF011D928A95E9F76CED662E6B
:1014600067E0762E78866F8219821A821B821C8230
:101470001D821E82198A1A8A1B8A1C8A1D861E8654
:101480001F86188A8CE0EDEEF5E0DF01282F1D9213
:101490002A95E9F7E9EFF5E0DF011D928A95E9F772
:1014A00080E2E9E6F5E0DF011D928A95E9F78EE139
:1014B00094E0BE01695F7F4FAE014F5F5F4F9E01B9
:1014C0002E5F3F4F8E010D5F1F4FA4E0EA2EF12CDF
:1014D000EC0EFD1EB5E0CB2ED12CCC0EDD1EA6E011
:1014E000AA2EB12CAC0EBD1EB9E08B2E912C8C0E09
:1014F0009D1E0E94D31C89859A85AB85BC858F3F34
:10150000EFEF9E07EFEFAE07EFEFBE0741F47886EF
:101510006F8219821A821B821C821D821E828EE1BA
:1015200094E0BE016F5E7F4FAE01435F5F4F9E014F
:10153000275F3F4F0E94411C80918604882311F44D
:1015400086E501C081E48093A9018EE194E00E94C8
:10155000AB1D6BA37CA38DA39EA38EE194E00E94A0
:10156000F11D6D8F7E8F8F8F98A320915E04309137
:101570005F043AA329A3C0905604D0905704E0908A
:101580005804F090590489899A89AB89BC89B7FFBE
:101590000EC0B095A095909581959F4FAF4FBF4FCE
:1015A000898B9A8BAB8BBC8B53E5452E02C04EE4E6
:1015B000442E8D859E85AF85B889B7FF0EC0B09546
:1015C000A095909581959F4FAF4FBF4F8D879E8778
:1015D000AF87B88B37E5632E02C025E4622E4989B8
:1015E0005A896B897C894F3F39EC53073AE9630785
:1015F0003BE3730719F440E050E0BA0181E02DEEBF
:1016000035E00E9485064D855E856F8578894F3F60
:1016100089EC58078AE968078BE3780719F440E0FA
:1016200050E0BA0180E029EF35E00E9485065BA119
:101630004CA13DA12EA1852F942FA32FB22FBC0129
:10164000CD012091AD033091AE034091AF03509195
:10165000B0030E941030882321F470E060E090E035
:1016600004C07BA16CA19DA18EA1AB019C01852F23
:10167000962FA32FB22FBC01CD0140E022E009E656
:1016800015E00E949F32E9E8F5E084E6DF011D9253
:101690008A95E9F7209152053091530538A72FA379
:1016A0004F8158855AA749A729813A814B815C818E
:1016B0006D818091B9049091BA04A091BB04B0915E
:1016C000BC048BA79CA7ADA7BEA77091AA01A09050
:1016D000A9014F019FEFC9169FEFD9069FEFE906B9
:1016E0009FEFF90619F4CC24DD247601A9A1BAA153
:1016F000AF3FB10519F400E010E002C009A11AA142
:10170000EDB7FEB7F4970FB6F894FEBF0FBEEDBF6E
:101710003196ADB7BEB712969C928E92119781EF1B
:10172000282E81E0382E338222829FE1292E91E0FB
:10173000392E358224828FA198A597838683A9A507
:10174000BAA5B187A0872287138634871586468776
:101750001786508B118A628B138A2D893E894F8997
:10176000588D248B358B468B578B898D9A8DAB8DFD
:10177000BC8D808F918FA28FB38F2BA53CA54DA5DB
:101780005EA5248F358F468F578F70A311A28DEEE3
:1017900095E093A382A344A215A289EF95E097A3B5
:1017A00086A360A611A689E695E093A782A7A4A6C2
:1017B00015A6C6A6D7A6E0AAF1AA13AB02AB0E9453
:1017C0004F34F40101900020E9F73197E958F540D2
:1017D0008E2F90E0DC01A757BA4F1C9240918A05EA
:1017E000EBE8F5E02DB73EB72C5C3F4F0FB6F89411
:1017F0003EBF0FBE2DBF21E030E004C05191452710
:101800002F5F3F4F28173907CCF3403170F400D0D9
:1018100000D000D02DB73EB72F5F3F4FEDB7FEB7DA
:10182000B283A18381E492E00DC000D000D000D04B
:101830002DB73EB72F5F3F4FEDB7FEB7B283A18301
:1018400086E492E0D90113969C938E931297149696
:101850004C93149715961C920E944F34EDB7FEB727
:1018600036960FB6F894FEBF0FBEEDBF809186048A
:10187000882309F4ACC069897A898B899C890E9484
:1018800000072B013C016D857E858F8598890E941C
:101890000007698F7A8F8B8F9C8F6D8D7E8D8F8DDA
:1018A00098A120E030E040EA50E40E94C0311816D0
:1018B00024F049E1842E912C03C035E0832E912C35
:1018C0006D8D7E8D8F8D98A120E030E040E251E457
:1018D0000E94C03118161CF42AE0822E912C6D8DC6
:1018E0007E8D8F8D98A120E030E040E751E40E948A
:1018F000C03118161CF494E1892E912C8091AB0113
:101900008823B9F0409203055092040560920505C2
:1019100070920605298D3A8D4B8D5C8D20930705BD
:10192000309308054093090550930A051092AB01C6
:101930004EC0E0900305F09004050091050510915C
:101940000605A0900705B0900805C0900905D09045
:101950000A05C301B201298D3A8D4B8D5C8D0E9421
:10196000001B0E947F30AB01BC01C401AA2797FD78
:10197000A095BA2F84179507A607B70740F5809161
:10198000FF0490910005A0910105B0910205840F1C
:10199000951FA61FB71F8093FF0490930005A09387
:1019A0000105B09302054092030550920405609230
:1019B000050570920605898D9A8DAB8DBC8D80933F
:1019C000070590930805A0930905B0930A058BE0DD
:1019D00095E00E942A2A80914005882309F060C280
:1019E000C090B104D090B204E090B304F090B4047D
:1019F000C701B60120E13EE040E050E00E947B39A3
:101A0000022F2B83C701B6012CE330E040E050E009
:101A10000E947B398CE3809F802D1124281B2C830E
:101A2000ADB7BEB718970FB6F894BEBF0FBEADBF27
:101A3000EDB7FEB7319689E6E82E85E0F82E1296CE
:101A4000FC92EE9211978AE492E09383828304835E
:101A50001582268317820E944F34EDB7FEB7389661
:101A60000FB6F894FEBF0FBEEDBF8BE095E06CE5BE
:101A700070E040E150E00E9479298BE095E061E060
:101A80000E947F298BE095E061E070E00E9485294B
:101A90008BE095E0B7010E9478228BE095E060E052
:101AA00070E040E050E00E9479298BE095E062E030
:101AB0000E947F298091AA01863549F48BE095E048
:101AC00060E070E041E050E00E948B2906C08BE0AE
:101AD00095E061E070E00E9485292D893E894F895B
:101AE000588D293E83E0380780E0480780E058079A
:101AF000E0F0CA01B90128EE33E040E050E00E9476
:101B00007B39CA01B9010E94B03040E021E009E60A
:101B100015E00E949F328BE095E0B8010E944B22B5
:101B20008BE095E065E271E00FC06D897E898F8959
:101B3000988D0E94B03040E020E009E615E00E9458
:101B40009F328BE095E0B8010E944B2200D000D07C
:101B500009E615E0ADB7BEB712961C930E93119728
:101B600085E592E014969C938E9313970E944F34D0
:101B70000F900F900F900F908BE095E0B8010E94AE
:101B80004B2280919204882379F4809105069091EC
:101B90000606009749F08BE095E060E070E041E0D8
:101BA00050E00E948B2906C08BE095E061E070E078
:101BB0000E9485298BE095E061E00E947F29809159
:101BC000860409E615E0882399F48BE095E06CE53E
:101BD00070E040E050E00E94792900D000D0EDB7DD
:101BE000FEB7128301838AE592E0948383833AC02F
:101BF0008BE095E06EE670E040E050E00E947929CD
:101C000000D000D000D0EDB7FEB73196ADB7BEB76B
:101C100012961C930E93119787E291E0938382832F
:101C200029A13AA1358324830E942D344DB75EB794
:101C30004A5F5F4F0FB6F8945EBF0FBE4DBF8BE09B
:101C400095E0B8010E944B2200D000D0ADB7BEB7DE
:101C500012961C930E93119781E692E014969C9332
:101C60008E9313970E944F340F900F900F900F9008
:101C70008BE095E0B8010E9478228BE095E061E06E
:101C800070E00E9485298BE095E060E070E040E123
:101C900050E00E94792980914105882349F56D899A
:101CA0007E898F89988D0E94B030209155053091A2
:101CB000560540915705509158050E94173009E686
:101CC000C02E05E0D02E40E023E086010E949F3226
:101CD0008BE095E0B6010E944B2200D000D0EDB71A
:101CE000FEB7D282C18283E692E0948383832EC0C2
:101CF0008130B9F56D897E898F89988D0E94B030C9
:101D00002091590530915A0540915B0550915C0531
:101D10000E94CB3119E6C12E15E0D12E40E023E020
:101D200086010E949F328BE095E0B6010E944B2213
:101D300000D000D0ADB7BEB71296DC92CE9211970C
:101D40008AE692E014969C938E9313970E944F34E8
:101D50000F900F900F900F908BE095E0B6010E94CE
:101D600078228091050690910606B9E6CB2EB5E063
:101D7000DB2E009709F446C06091FF0470910005C6
:101D800080910105909102050E94B03020E030E082
:101D90004AE754E40E94173040E021E086010E94A7
:101DA0009F32F60101900020E9F73197EC19FD0907
:101DB000CF01880F991F8E0F9F1F880F991F64E70F
:101DC00070E0681B790B8BE095E048E050E00E94E2
:101DD00079298BE095E0B6010E944B2200D000D01B
:101DE000EDB7FEB7D282C18281E792E0948383830C
:101DF0000E944F340F900F900F900F908BE095E062
:101E0000B6014BC080918604882381F05BA14CA170
:101E10003DA12EA1852F942FA32FB22FBC01CD0160
:101E200040E020E086010E949F3214C000D000D024
:101E3000ADB7BEB71296DC92CE92119784E792E0CE
:101E400014969C938E9313970E944F340F900F908B
:101E50000F900F9009E615E0F80101900020E9F7D6
:101E60003197E01BF10BCF01880F991F8E0F9F1F39
:101E7000880F991F6AE770E0681B790B8BE095E08B
:101E800048E050E00E9479298BE095E0B8010E947B
:101E90004B228BE095E06BE271E00E947822D6C184
:101EA000813009F0A3C18091AA01863549F48BE005
:101EB00095E060E070E041E050E00E948B2906C0B0
:101EC0008BE095E061E070E00E9485298BE095E071
:101ED00062E00E947F298BE095E060E070E040E0E6
:101EE00050E00E9479296D897E898F89988D0E94A2
:101EF000B0304B015C012091550530915605409161
:101F00005705509158050E941730B9E6CB2EB5E021
:101F1000DB2E40E022E086010E949F328BE095E0BC
:101F2000B6010E944B2200D000D0EDB7FEB7D2829E
:101F3000C18287E792E0948383830E944F340F909D
:101F40000F900F900F908BE095E0B6010E944B220E
:101F50008BE095E060E070E040E150E00E9479297C
:101F60008BE095E061E00E947F298BE095E061E0E5
:101F700070E00E94852980910506909106060097E1
:101F800009F47DC02D893E894F89588D293E83E013
:101F9000380780E0480780E05807D0F0CA01B9014F
:101FA00028EE33E040E050E00E947B39CA01B901DD
:101FB0000E94B03040E021E00E949F328BE095E02B
:101FC000B6010E944B228BE095E065E271E00EC005
:101FD0008BE095E04D895E896F89788D2AE030E04D
:101FE0000E94FA228BE095E06DE271E00E944B22A4
:101FF00000D000D0A9E6CA2EA5E0DA2EADB7BEB754
:102000001296DC92CE9211978DE792E014969C93F3
:102010008E9313970E944F340F900F900F900F9054
:102020008BE095E0B6010E944B22C501B4012091DE
:10203000590530915A0540915B0550915C050E940D
:10204000CB3140E020E086010E949F328BE095E09A
:10205000B6010E944B2200D000D0EDB7FEB7D2826D
:10206000C18282E892E0948383830E944F340F9070
:102070000F900F900F908BE095E0B601E5C000D077
:1020800000D0ADB7BEB71296DC92CE92119789E818
:1020900092E014969C938E9313970E944F340F9066
:1020A0000F900F900F908BE095E0B6010E944B22AD
:1020B0006091B5047091B6048091B7049091B80412
:1020C0000E94B0302091550530915605409157053A
:1020D000509158050E94173040E021E086010E948F
:1020E0009F328BE095E0B6010E944B2200D000D0D9
:1020F000EDB7FEB7D282C1828DE892E094838383EC
:102100000E944F340F900F900F900F908BE095E04E
:10211000B6010E944B2200D000D0ADB7BEB71296D8
:10212000DC92CE92119783E992E014969C938E9361
:1021300013970E944F340F900F900F900F908BE0E9
:1021400095E0B6010E944B226091380570913905E7
:1021500080913A0590913B050E94B0304B015C01A3
:102160006091340570913505809136059091370561
:102170000E94B0302B013C01C501B40120E030E0E9
:1021800040E752E40E9417309B01AC01C301B20149
:102190000E94173020915505309156054091570502
:1021A000509158050E9417302B013C01C501B40124
:1021B00020E030E041E655E40E9417309B01AC017D
:1021C000C301B2010E94CB3140E020E00E949F3267
:1021D0008BE095E0B6010E944B2200D000D0EDB715
:1021E000FEB7D282C18287E992E03DCF8BE095E0D5
:1021F00060E070E040E050E00E9479298BE095E0DB
:1022000062E00E947F298BE095E060E070E041E0B1
:1022100050E00E948B2900D000D009E615E0ADB750
:10222000BEB712961C930E9311978AE992E014960A
:102230009C938E9313970E944F340F900F900F90A2
:102240000F908BE095E0B8010E944B22EDB7FEB7EE
:102250003E970FB6F894FEBF0FBEEDBF319609E66C
:1022600015E0ADB7BEB712961C930E93119787EA8F
:1022700092E0938382838A81848315828981868315
:1022800017828B81808711868C81828713868D814E
:10229000848715860E944F34EDB7FEB73E960FB681
:1022A000F894FEBF0FBEEDBF8BE095E060E070E0FC
:1022B00048E150E00E9479298BE095E061E00E94BE
:1022C0007F298BE095E061E070E00E9485298BE03A
:1022D00095E0B8010E94782285E10E94821F9C014E
:1022E000B901882777FD8095982F0E94B23020E0B1
:1022F00030E040E85AE30E94CB3120E030E040E299
:1023000051E40E94CB3124EB35EC4AEC5DE30E94B2
:10231000173020E030E040EF51E40E94492F0E9446
:102320007F306B017C0177FD04C06930710524F4B6
:1023300006C0CC24DD2403C0F8E0CF2ED12C8BE0E6
:1023400095E064E770E048E150E02CE030E007E021
:1023500010E0E1E0EE2EF12C0E9465278BE095E085
:1023600066E770E04AE150E0960103E010E00E9469
:10237000F0278BE095E00E94AC2B809105069091B0
:10238000060621E030E0822793279093060680938B
:10239000050682E296E069E875E00E947822809165
:1023A000F1048823A9F080914005882389F483E90A
:1023B00094E00E94D62383E994E069E875E00E94E6
:1023C000782206C0002311F40C94BA070C94BE07BF
:1023D000AE960FB6F894DEBF0FBECDBFDF91CF91A2
:1023E0001F910F91FF90EF90DF90CF90BF90AF9033
:1023F0009F908F907F906F905F904F903F902F9025
:10240000089581E090E00E94D503089580E090E077
:102410000E94D50308958091070690910806A09127
:102420000906B0910A060196A11DB11D8093070609
:1024300090930806A0930906B0930A060895809326
:1024400013069093140640930B0650930C0660936A
:102450000D0670930E061092070610920806109251
:10246000090610920A066BE072E143E050E00E9418
:102470001B1E08950E94DF1EDC01CB0180930F0616
:1024800090931006A0931106B093120610920706BF
:10249000109208061092090610920A060895CF922B
:1024A000DF92EF92FF920F931F930E94DF1EDC01D9
:1024B000CB0140910F06509110066091110670916A
:1024C000120600910B0610910C0620910D0630911A
:1024D0000E0684179507A607B70748F06C017D0123
:1024E000C41AD50AE60AF70AB701A60108C0409542
:1024F000509560957095480F591F6A1F7B1F81E0AA
:1025000090E0401751076207730710F480E090E0F5
:102510001F910F91FF90EF90DF90CF900895609101
:102520000706709108068091090690910A060895A1
:10253000EF92FF920F931F93FC017183608353838B
:1025400042833583248317830683F186E0861F91B7
:102550000F91FF90EF900895EF92FF920F931F93CA
:10256000CF93DF93EB012DE2E22EF12C8C01061BC1
:10257000170BBE01600F711F49918DE497E00E9417
:1025800094260894E108F108E114F10491F78DE232
:1025900090E0DF91CF911F910F91FF90EF90089500
:1025A000EF92FF920F931F93CF93DF937C018B01E8
:1025B000C0E0D0E0F80141918F01BE016E0D7F1D9A
:1025C0008DE497E00E9494262196C830D10591F7BA
:1025D00088E090E0DF91CF911F910F91FF90EF90F5
:1025E00008957F928F929F92AF92BF92CF92DF9287
:1025F000EF92FF920F931F93CF93DF935C01EB0158
:10260000DC018D919C910E94D623EDB7FEB73897DF
:102610000FB6F894FEBF0FBEEDBF3196D5011696EA
:102620008D919C911797ADB7BEB712969C938E93E0
:1026300011978CED92E093838283D583C483D50177
:1026400018968D919C911997978386830E944F3499
:10265000EDB7FEB738960FB6F894FEBF0FBEEDBFCC
:10266000D50116966D917C9117978D919C910E9442
:102670004B22F50180819181DC01ED91FC9101906B
:10268000F081E02D6DE00995F50180819181DC01FB
:10269000ED91FC910480F581E02D09950097A1F35F
:1026A000F50180819181DC01ED91FC910680F7813B
:1026B000E02D09958D30910539F7F501408551855B
:1026C0008681978160E070E00E940E34C0E0D0E027
:1026D0007724D5018D919C91DC01ED91FC910480D2
:1026E000F581E02D0995009791F0F501C681D7811C
:1026F000C70DD11D80819181DC01ED91FC91068097
:10270000F781E02D099588837394C0E0D0E061E003
:1027100070E080E090E00E941B1F272D30E0F50163
:10272000808591852817390729F02196F3E0C83E66
:10273000DF077CF288249924D2C1D50116966D91C9
:102740007C911797DB01A80DB11D40E009C04F5FD8
:10275000882D90E0F501208531858217930739F0A7
:10276000FB01E80DF11D808183948A3081F7FD0122
:10277000E40FF11D10828C91882309F4B0C18332DB
:1027800009F4ADC1433008F4AAC180E0ED01C80FDF
:10279000D11D9881903211F0993051F48F5F8417D8
:1027A000A9F79DC1903211F0993009F410828F5F22
:1027B000841709F494C1FD01E80FF11D90819D3348
:1027C00089F7841709F48BC110828F5F8D01080F80
:1027D000111DF8019081903211F0993021F48F5F32
:1027E0008417A1F77CC1841709F479C1CE016FE287
:1027F00071E00E941534009779F5C8010E94F0330A
:102800009C01B901882777FD8095982F0E94B230EE
:10281000EB01F82EE92ED5011296CD90DC9013979E
:10282000F601618D728D838D948DA7010C2F1D2F64
:10283000252F342FA90198010E941030882309F414
:102840004EC197018C2F9D2FA32FB22FF601818FA0
:10285000928FA38FB48F35C0CE0164E371E00E94E4
:102860001534009789F5C8010E94F0339C01B90125
:10287000882777FD8095982F0E94B230EB01F82EC3
:10288000E92ED5011296CD90DC901397F601658D57
:10289000768D878D90A1A7010C2F1D2F252F342F0A
:1028A000A90198010E941030882309F418C19701EA
:1028B0008C2F9D2FA32FB22FF601858F968FA78F78
:1028C000B0A3992493940BC1CE0169E371E00E94F7
:1028D0001534009739F4D5011296CD91DC911397F8
:1028E00026966BC0CE016CE371E00E941534009710
:1028F00081F4F501C281D381C8010E94F0339C01AB
:102900008E899F898217930709F4E9C03F8B2E8B2C
:10291000D8CFCE0160E471E00E941534009781F4B5
:10292000D5011296CD91DC911397C8010E94F03326
:102930002C8130E02817390709F4D1C08C83C1CF2E
:10294000CE0163E471E00E941534009771F4F50143
:10295000C281D381C8010E94F0332D8130E0281755
:10296000390709F4BCC08D83ACCFCE0166E471E0B9
:102970000E941534009791F4D5011296CD91DC9107
:102980001397C8010E94F0339C0189A19AA1821774
:10299000930709F4A4C03AA329A393CFCE0169E415
:1029A00071E00E9415340097A1F4F8011382D5015B
:1029B0001296CD91DC911397A496CE01B8010E9496
:1029C0001534009709F48BC0CE01B8010E941E3463
:1029D00078CFCE016CE471E00E941534009771F459
:1029E000F501C281D381C8010E94F0332BA130E0F0
:1029F0002817390709F473C08BA363CFCE016FE4A6
:102A000071E00E941534009781F4D5011296CD91A2
:102A1000DC911397C8010E94F03328A530E02817F5
:102A2000390709F45CC088A74CCFCE0162E571E09C
:102A30000E941534009771F4F501C281D381C80159
:102A40000E94F03329A530E02817390709F447C060
:102A500089A737CFCE0165E571E00E941534009754
:102A600089F4D5011296CD91DC911397C8010E948B
:102A7000F0339C018AA59BA58217930781F13BA7A0
:102A80002AA71FCFCE0168E571E00E941534009798
:102A900069F4F501C281D381C8010E94F0332CA5ED
:102AA00030E028173907D9F08CA70BCFCE016BE5A2
:102AB00071E00E941534009791F4D5011496EC91C1
:102AC00014971596FC9188E0DF011D928A95E9F72D
:102AD000F5016481758188EC90E00E94D012871422
:102AE00008F42BCE992049F0D50112966D917C9176
:102AF000139784EF91E00E94AC12DF91CF911F9168
:102B00000F91FF90EF90DF90CF90BF90AF909F908C
:102B10008F907F900895EF92FF920F931F93CF9322
:102B2000DF938C01DC011296EC9112971396FC91C5
:102B30008DE2DF011D928A95E9F7F801E280F380CA
:102B400064EF71E001C0BE01EB0121968DE497E0D6
:102B50000E949026D7018D937D01B2E0C132DB0740
:102B600091F7D8011296ED91FC9113978081918194
:102B7000A281B3818D3020EF92072EEFA2072AE5C4
:102B8000B20709F466C08DE2DF011D928A95E9F76C
:102B9000D8011296ED91FC9113978DE090EFAEEF76
:102BA000BAE580839183A283B38382ED90E0978B13
:102BB000868B89E083A300D000D0F80182819381C5
:102BC0008496ADB7BEB712969C938E93119788EDFD
:102BD00092E014969C938E9313970E944F34D801E1
:102BE0001296ED91FC9113978CE3808F1296ED91E4
:102BF000FC91139780E090E0A7EAB3E4818F928F75
:102C0000A38FB48F80E090E0A4E1B2E4858F968F2B
:102C1000A78FB0A384E690E093A782A70F900F90B0
:102C20000F900F9084EF91E0BF010E94AC12D80189
:102C30001496EC9114971596FC9188E0DF011D9293
:102C40008A95E9F7F8016481758188EC90E00E942B
:102C5000D012DF91CF911F910F91FF90EF900895C7
:102C6000FC01262F4FEF5FEFBA014083518362834F
:102C7000738310861186128613868FEF99ECAAE96A
:102C8000BBE3808B918BA28BB38B808F918FA28FB4
:102C9000B38F80A391A3A2A3B3A380A791A7A2A758
:102CA000B3A780AB91ABA2ABB3AB40AF51AF62AFB8
:102CB00073AFDF01A05CBF4F8FEF90E08D939C93CB
:102CC000DF01AC5BBF4F4D935D936D937C93139786
:102CD000DF01A45BBF4F4D935D936D937C9313977E
:102CE000DF01AC5ABF4F1C92DF01AB5ABF4F1C92A1
:102CF000DF01AB59BF4F82E08C93DF01AA59BF4F70
:102D00001C92DF01A959BF4F1C92DF01A859BF4F88
:102D10001C92DF01A659BF4F1D921D921D921C925D
:102D20001397DF01A259BF4F1D921C92DF01A059DA
:102D3000BF4F1D921C92DF01AA5ABF4F1C92E75948
:102D4000FF4F20830895262F2154862F90E02630B0
:102D500010F4C79708956156663018F4875590406F
:102D60000895C0970895EF92FF920F931F93CF930A
:102D70007B0100E010E0980112C0C901B8012AE00F
:102D800030E040E050E00E9435398B019C010C0F8F
:102D9000111D211D311D0053104020403040F7010E
:102DA000C1917F018C2F80538A3038F3B801C9015B
:102DB000CF911F910F91FF90EF9008952F923F9226
:102DC0004F925F926F927F928F929F92AF92BF923B
:102DD000CF92DF92EF92FF920F931F93CF93DF93E7
:102DE00026E5E22EF12CE80EF91EB7010E94B3167B
:102DF000EB01182F092FF7012E2F9F2F8191382FCC
:102E000030533A30C8F38E32A1F5622E792E80E12C
:102E1000C82E87E2D82EE12CF12C88249924540165
:102E20009AE0292E312C412C512C19C070E06053AE
:102E30007040882777FD8095982FA70196010E9402
:102E40003539DC01CB01880E991EAA1EBB1EC701B5
:102E5000B601A20191010E947B3969017A01F30157
:102E600061810894611C711C862F80538A30F0F2B6
:102E700003C0882499245401BE01812F902F20EA99
:102E800036E841E050E00E9435398B019C01080D85
:102E9000191D2A1D3B1DB801C901DF91CF911F915A
:102EA0000F91FF90EF90DF90CF90BF90AF909F90E9
:102EB0008F907F906F905F904F903F902F900895EC
:102EC0002F923F924F925F926F927F928F929F923A
:102ED000AF92BF92CF92DF92EF92FF920F931F9328
:102EE000CF93DF9356E5C52ED12CC80ED91EB6015F
:102EF0000E94B316162F072FEC0124E630E040E0C5
:102F000050E00E947B3920EA36E841E050E00E9420
:102F100035394B015C01F6012E2F9F2F8191382FFF
:102F200030533A30C8F38E3281F5622E792E30E17B
:102F3000C32E37E2D32EE12CF12C4AE0242E312C83
:102F4000412C512C19C070E060537040882777FDE8
:102F50008095982FA70196010E943539DC01CB019D
:102F6000880E991EAA1EBB1EC701B601A2019101BF
:102F70000E947B3969017A01F30161810894611C27
:102F8000711C862F80538A30F0F2C501B4016B5F4B
:102F90007F4F8F4F9F4F26E030E040E050E00E948F
:102FA0007B3969017A01612F702FCE0124E630E070
:102FB00040E050E00E947B39CA01B90120E432E4CC
:102FC0004FE050E00E943539DC01CB01C80ED91E1C
:102FD000EA1EFB1EB601C701DF91CF911F910F9131
:102FE000FF90EF90DF90CF90BF90AF909F908F9029
:102FF0007F906F905F904F903F902F900895FF9239
:103000000F931F93CF93DF93EC01CA5ADF4FFF2436
:10301000F39428812D3211F0FF2403C0EC01C95A2A
:10302000DF4FBE010E94B31624E630E040E050E0DE
:103030000E9435398B019C01FE018991982F905394
:103040009A30D0F38E3251F54181842F80538A30EB
:1030500028F5842F90E0AC01440F551F73E0880FD2
:10306000991F7A95E1F7480F591F405E5140662736
:1030700057FD6095762F040F151F261F371F82817D
:10308000982F90539A3050F490E0C097AA2797FD5C
:10309000A095BA2F080F191F2A1F3B1FFF2039F0D8
:1030A00030952095109501951F4F2F4F3F4FB80138
:1030B000C901DF91CF911F910F91FF900895DB011E
:1030C000FA018D91882319F091918917D1F390E03D
:1030D0000895EF92FF920F931F93CF93DF938C018C
:1030E000FC01EB5AFF4F8081F801882309F4EBC003
:1030F000EA5AFF4FC80160810E94A316C82FF80149
:10310000E95AFF4FC80160810E94A316C295C07F93
:10311000C80FF801EC5AFF4F8081F801C81709F079
:10312000CAC0E859FF4F8081F801882309F494C090
:10313000E259FF4F80819181019691838083F8014C
:10314000EC5BFF4FD801A85BBF4F8D919D910D9017
:10315000BC91A02D80839183A283B383F801E45BAB
:10316000FF4FD801A05BBF4F8D919D910D90BC91F9
:10317000A02D80839183A283B383F801EB59FF4F85
:1031800080818823A9F1813009F0A7C1F8018481E9
:103190009581A681B78180839183A283B38384853F
:1031A0009585A685B78580879187A287B38784890F
:1031B0009589A689B789808B918BA28BB38B848DDF
:1031C000958DA68DB78D808F918FA28FB38F84A59B
:1031D00095A5A6A5B7A580A791A7A2A7B3A784A9DF
:1031E00095A9A6A9B7A980AB91ABA2ABB3AB75C1AA
:1031F000F80184A195A1A6A1B7A180A391A3A2A340
:10320000B3A384819581A681B78180839183A283B2
:10321000B38384899589A689B789808B918BA28B8A
:10322000B38B848D958DA68DB78D808F918FA28F56
:10323000B38FE05CFF4FD801AE5BBF4F8D919C9187
:1032400091838083F80184AD95ADA6ADB7AD80AF15
:1032500091AFA2AFB3AF41C184819581A681B781FF
:103260000097A105B10509F43AC1E801CC5BDF4F35
:10327000E85BFF4F408151816281738148835983AC
:103280006A837B83F801EB59FF4F2081222389F069
:10329000213009F024C1F80180839183A283B38394
:1032A00084859585A685B78580879187A287B38712
:1032B00016C1F80186C0E059FF4F808191810196C7
:1032C000918380830CC1EA59FF4F8081882301F5E7
:1032D000E801CA5ADF4FC801BE0140E651E00E9432
:1032E0005F18B5E6EB2EF12CE00EF11E009711F4FD
:1032F00081E00CC0C801BE0146E651E00E945F18A3
:10330000009719F4F7011082EAC082E0F701C2C009
:10331000F801EB59FF4FE081E23009F4E0C0D80139
:10332000AA5ABF4F2C91222309F4D9C0F0E0A5E09E
:10333000EE0FFF1FAA95E1F790E0E82BF92B3197EC
:10334000E932F10508F0CBC0EC5CFF4FEE0FFF1F38
:103350000590F491E02D0994C8010E94FF17DC014B
:10336000CB01F80184839583A683B7830E94DF1E77
:10337000DC01CB01F801E85BFF4F23C0F801E859FD
:10338000FF4F81E0213409F084C084C0F801E7597F
:10339000FF4F8081882321F0C8010E94DE1603C000
:1033A000C8010E946017DC01CB01F801848B958B6A
:1033B000A68BB78B0E94DF1EDC01CB01F801E05B1E
:1033C000FF4F80839183A283B38389C0233509F0A3
:1033D00086C0F80184899589A689B789B095A0959A
:1033E000909581959F4FAF4FBF4F848B958BA68B48
:1033F000B78B75C0F801E759FF4F8081882321F012
:10340000C8010E94DE1603C0C8010E946017DC01DB
:10341000CB01F8010FC0273509F061C0F801848D98
:10342000958DA68DB78DB095A095909581959F4F60
:10343000AF4FBF4F848F958FA68FB78F50C0C801F5
:103440000E94FF17DC01CB01F80184A795A7A6A76E
:10345000B7A745C0C8010E94FF17DC01CB01F801E6
:1034600084AB95ABA6ABB7AB3AC0B8016A5A7F4FF5
:10347000C8010E94B316DC01CB01F801848795874F
:10348000A687B7872CC0F801E859FF4F81E02133A8
:1034900008F480E0808323C0C8018A5A9F4F0E94AD
:1034A000F033F801EE5BFF4F8083118218C0C80132
:1034B0000E94FF17DC01CB01F80184AF95AFA6AFE6
:1034C000B7AF0DC0C8010E94FF17DC01CB01F801A6
:1034D00084A395A3A6A3B7A302C081E001C080E0A6
:1034E000DF91CF911F910F91FF90EF9008950F936F
:1034F0001F93CF93DF930F92CDB7DEB78C01FC0102
:10350000E659FF4F80819181A281B3810196A11D6F
:10351000B11D80839183A283B383F801E959FF4FE2
:103520006432C9F1653230F46A3079F06D3009F0F7
:1035300049C00BC06A3249F06C3209F043C0F8014F
:10354000EC5AFF4F808186278083F801E959FF4FAD
:1035500080818F3060F4F801E80FF11DEA5AFF4FC7
:103560001082C80169830E946918698101C080E0E6
:10357000F801EA59FF4F90819F5F9083F801E95964
:10358000FF4F1082F801EB5AFF4F91E06A3209F0C9
:1035900090E090832FC01082F801EA59FF4F10820B
:1035A000F801EC5AFF4F1082F801EB59FF4F82E00F
:1035B0008083F801EB5AFF4F1082F801E859FF4F62
:1035C000108217C080818E3040F4D801A80FB11D41
:1035D000AA5ABF4F6C938F5F8083F801EB5AFF4F5D
:1035E0008081882331F4F801EC5AFF4F80818627CF
:1035F000808380E00F90DF91CF911F910F9108950C
:103600004F925F926F927F928F929F92AF92BF92F2
:10361000CF92DF92EF92FF920F931F93CF93DF939E
:10362000CDB7DEB764970FB6F894DEBF0FBECDBF3F
:1036300069837A838B839C83CA01B901270138018E
:10364000A60195010E94492F25E33AEF4EE85CE37D
:103650000E94CB31862EC72E8C01982F482D5C2DD1
:10366000692F712FCB01BA010E942E32698B7A8BA0
:103670008B8B9C8B882D9C2DA02FB12FBC01CD0155
:103680000E9414306D837E838F83988769817A814D
:103690008B819C8125E33AEF4EE85CE30E94CB31BD
:1036A000E62E872EC82E092FC301B20125E33AEF7B
:1036B0004EE85CE30E94CB31F62E172F482EB92E30
:1036C0008E2D982DAC2DB02FBC01CD010E942E3235
:1036D00069837A838B839C838E2D982DAC2DB02F9C
:1036E000BC01CD010E94143069877A878B879C8743
:1036F0008F2D912FA42DBB2DBC01CD010E942E3208
:103700006D877E878F87988B8F2D912FA42DBB2D52
:10371000BC01CD010E9414306B017C0169857A8562
:103720008B859C852D853E854F8558890E94CB31A0
:103730004B015C0169817A818B819C81A701960193
:103740000E94CB312D813E814F8158850E94CB3123
:103750009B01AC01C501B4010E94492FB62FA72FD0
:10376000382F292FFD01C9014F2F5E2F692F782F88
:10377000CB01BA01A9010F2F1E2F252F342FA9012C
:1037800098010E94CB31862EB72E482EA92EC70154
:10379000B60129893A894B895C890E94CB31B62FC1
:1037A000A72F382F292FFD01C9014F2F5E2F692F19
:1037B000782FCB01BA01A9010F2F1E2F252F342FEF
:1037C000A90198010E94CB319B01AC01882D9B2D52
:1037D000A42DBA2DBC01CD010E944A2F462F572F90
:1037E000682F792FCB01BA010E9438322B013C019E
:1037F00069817A818B819C812D853E854F85588991
:103800000E94CB314B015C0169857A858B859C8553
:10381000A70196010E94CB312D813E814F815885B1
:103820000E94CB319B01AC01C501B4010E944A2F1B
:103830009B01AC01C301B2010E94BD2F26E73BE70B
:1038400042EC5AE40E94CB31462F572F682F792F34
:10385000CB01BA0164960FB6F894DEBF0FBECDBFA0
:10386000DF91CF911F910F91FF90EF90DF90CF905C
:10387000BF90AF909F908F907F906F905F904F9090
:1038800008950F931F93CF93DF93EC018901611586
:10389000710549F088899989AA89BB89FB018083D0
:1038A0009183A283B3834115510549F0888D998D89
:1038B000AA8DBB8DFA0180839183A283B383011506
:1038C000110519F1C45BDF4F88819981AA81BB8101
:1038D0008F3FFFEF9F07FFEFAF07FFEFBF0769F0D5
:1038E0000E94DF1EDC01CB01488159816A817B8106
:1038F000841B950BA60BB70B03C08FEF9FEFDC016A
:10390000F80180839183A283B383DF91CF911F91CC
:103910000F9108950F931F93CF93DF93EC018901CB
:103920006115710549F088859985AA85BB85FB01DC
:1039300080839183A283B3834115510549F0888127
:103940009981AA81BB81FA0180839183A283B38389
:103950000115110519F1CC5BDF4F88819981AA818E
:10396000BB818F3FFFEF9F07FFEFAF07FFEFBF0761
:1039700069F00E94DF1EDC01CB01488159816A8118
:103980007B81841B950BA60BB70B03C08FEF9FEFBA
:10399000DC01F80180839183A283B383DF91CF910F
:1039A0001F910F9108952F923F924F925F926F92C5
:1039B0007F928F929F92AF92BF92CF92DF92EF92BF
:1039C000FF920F931F93CF93DF93CDB7DEB72C9762
:1039D0000FB6F894DEBF0FBECDBF3B012A0119011F
:1039E000FA86E986DC86CB869401BE016B5F7F4F49
:1039F000AE014F5F5F4F0E948A1C61147104D1F0C9
:103A00006D817E818F81988524E630E040E050E032
:103A10000E947B39DC01CB019C01813591051CF0B2
:103A20008CE697E002C080ED97E0820F931FF301D0
:103A30009183808341145104A9F06D817E818F812F
:103A40009885F4E6CF2ED12CE12CF12CA70196011C
:103A50000E947B39CA01B901A70196010E947B39F6
:103A6000F20160832114310461F06D817E818F81C8
:103A7000988520E137E240E050E00E947B39F10177
:103A800020830115110561F069817A818B819C8108
:103A900020E432E44FE050E00E947B39F8012083BB
:103AA00089859A850097A9F069817A818B819C81AB
:103AB00020E137E240E050E00E947B39CA01B901C1
:103AC00024E630E040E050E00E947B39E985FA8549
:103AD00060838B859C850097B1F069817A818B81A9
:103AE0009C81E4E6CE2ED12CE12CF12CA70196018D
:103AF0000E947B39CA01B901A70196010E947B3956
:103B0000EB85FC856083A114B10461F069817A8141
:103B10008B819C8124E630E040E050E00E947B39BC
:103B2000F50160832C960FB6F894DEBF0FBECDBFB3
:103B3000DF91CF911F910F91FF90EF90DF90CF9089
:103B4000BF90AF909F908F907F906F905F904F90BD
:103B50003F902F900895FC0160A171A182A193A1D3
:103B60006F3FF9EC7F07FAE98F07FBE39F0749F006
:103B70000E94B23020E030E048EC52E40E9417305E
:103B800004C060E074E284E799E4382F292F862F7F
:103B9000972FA32FB22FBC01CD010895FC0160A582
:103BA00071A582A593A56F3FF9EC7F07FAE98F070E
:103BB000FBE39F0749F00E94B03020E030E048EC82
:103BC00052E40E94173004C060E070E080E89FEB90
:103BD000382F292F862F972FA32FB22FBC01CD016D
:103BE0000895CF92DF92EF92FF920E94CE1D6B015B
:103BF0007C0120E030E040E85FEB0E941030882339
:103C000049F0C701B60126E53EE04DEE5FE30E94B4
:103C1000CB3104C060E070E080E89FEB382F292FA3
:103C2000862F972FA32FB22FBC01CD01FF90EF90CD
:103C3000DF90CF9008958230E8F4E82FF0E0EE0FA7
:103C4000FF1FEB5EF94F71836083813041F08091FB
:103C500069008C7F842B80936900E89A0895809195
:103C60006900440F551F440F551F837F842B809399
:103C70006900E99A08951F920F920FB60F921124CE
:103C80002F933F934F935F936F937F938F939F9364
:103C9000AF93BF93EF93FF93809115069091160613
:103CA000009729F0E0911506F09116060995FF910D
:103CB000EF91BF91AF919F918F917F916F915F91A4
:103CC0004F913F912F910F900FBE0F901F9018951D
:103CD0001F920F920FB60F9211242F933F934F9381
:103CE0005F936F937F938F939F93AF93BF93EF9364
:103CF000FF938091170690911806009729F0E091A4
:103D00001706F09118060995FF91EF91BF91AF91B9
:103D10009F918F917F916F915F914F913F912F91E3
:103D20000F900FBE0F901F9018951F920F920FB615
:103D30000F9211242F933F938F939F93AF93BF9331
:103D40008091190690911A06A0911B06B0911C064D
:103D500030912106232F2A5F2D3720F40296A11DD2
:103D6000B11D05C0232F27570396A11DB11D209318
:103D700021068093190690931A06A0931B06B09310
:103D80001C0680911D0690911E06A0911F06B09101
:103D900020060196A11DB11D80931D0690931E065D
:103DA000A0931F06B0932006BF91AF919F918F9172
:103DB0003F912F910F900FBE0F901F9018950F936A
:103DC0001F938FB7F8940091190610911A0620914D
:103DD0001B0630911C068FBFB801C9011F910F91BE
:103DE00008950F931F939FB7F89400911D061091AB
:103DF0001E0620911F063091200686B5A89B06C09E
:103E00008F3F21F00F5F1F4F2F4F3F4F9FBF322F2C
:103E1000212F102F0027080F111D211D311D43E0F8
:103E2000000F111F221F331F4A95D1F7B801C90196
:103E30001F910F910895CF92DF92EF92FF92CF934F
:103E4000DF936B017C010E94F11EDC01CB01EC01D0
:103E50000FC00E94F11E6C1B7D0B83E0683E78074B
:103E600038F00894C108D108E108F108C851DC4FC6
:103E7000C114D104E104F10461F7DF91CF91FF9007
:103E8000EF90DF90CF900895789484B5826084BDE0
:103E900084B5816084BD85B5826085BD85B581604E
:103EA00085BDEEE6F0E0808181608083E1E8F0E0AE
:103EB0001082808182608083808181608083E0E8DD
:103EC000F0E0808181608083E1EBF0E080818460BC
:103ED0008083E0EBF0E0808181608083EAE7F0E0BE
:103EE0008081846080838081826080838081816022
:103EF00080838081806880831092C10008958093C0
:103F0000AC0108958E3008F08E5087709091AC010E
:103F10009295990F990F907C982B90937C008091AB
:103F20007A00806480937A0080917A0086FDFCCFCD
:103F30008091780090917900392F20E090E0822BD9
:103F4000932B0895833071F0843028F48130A1F0F0
:103F5000823021F514C08630B1F08730D1F0843042
:103F6000E9F404C0809180008F7703C080918000C5
:103F70008F7D80938000089584B58F7702C084B5CB
:103F80008F7D84BD08958091B0008F778093B000BD
:103F900008958091B0008F7D8093B000089590E0E7
:103FA000FC01E350FD4F24918F5E9C4FFC018491F6
:103FB000882341F190E0880F991FFC01E75CFC4FDA
:103FC00045915491DA01815D9C4FFC01859194915A
:103FD000FC019FB7F8948C91662331F420958223DD
:103FE0008C938081822308C0623049F4322F30954F
:103FF00083238C938081822B80839FBF0895822BA3
:104000008C939FBF08950F931F93CF93DF930F92CD
:10401000CDB7DEB7282F30E0F901E751FD4F84918D
:10402000F901E350FD4F1491F901EF5EFC4F04914B
:104030000023D1F0882321F069830E94A21F6981A7
:10404000E02FF0E0EE0FFF1FE15DFC4F85919491B2
:10405000DC019FB7F8948C91662319F410958123A5
:1040600001C0812B8C939FBF0F90DF91CF911F9147
:104070000F910895FC0124853585F901E05CFF4F1F
:10408000808191812E5B3F4FF90120813181821B1C
:10409000930B8F7390700895FC0144855585FA0148
:1040A000E05CFF4F80819181FA01EE5BFF4F208140
:1040B00031818217930741F00190F081E02DE40FE8
:1040C000F51F808190E008958FEF9FEF0895FC0128
:1040D00044855585FA01E05CFF4F20813181FA016A
:1040E000EE5BFF4F808191812817390779F0A0811D
:1040F000B181A40FB51F8C91208131812F5F3F4F7B
:104100002F7330703183208390E008958FEF9FEFFD
:104110000895DC011E96ED91FC911F97DF01A05CD4
:10412000BF4FEE5BFF4F2D913C91119780819181A4
:1041300028173907C1F70895CF93DF93DC011E9646
:104140004D915C911F97EA01C05CDF4F2881398156
:104150002F5F3F4F2F733070FA01EE5BFF4F80816E
:10416000918128173907D9F3E881F981E40FF51F08
:1041700060831E96ED91FC911F97E05CFF4F3183A9
:1041800020835696ED91FC915797208181E090E035
:104190005D960C905D9702C0880F991F0A94E2F714
:1041A000282B208381E090E0DF91CF91089508953E
:1041B0001F920F920FB60F9211242F933F934F939C
:1041C0008F939F93EF93FF934091C6008091C50614
:1041D0009091C60601968F7390702091C70630911A
:1041E000C8068217930759F0E091C506F091C606FC
:1041F000EB57F94F40839093C6068093C506FF9115
:10420000EF919F918F914F913F912F910F900FBE02
:104210000F901F90189582E296E00E943A20009736
:1042200011F00E94D72008951F920F920FB60F929F
:1042300011242F933F938F939F93EF93FF9320919C
:10424000810630918206809183069091840628171A
:10425000390731F48091C1008F7D8093C10014C073
:10426000E0918306F0918406EF5BF94F2081809105
:1042700083069091840601968F73907090938406C4
:10428000809383062093C600FF91EF919F918F91B9
:104290003F912F910F900FBE0F901F9018957F9216
:1042A0008F929F92AF92BF92CF92DF92EF92FF9246
:1042B0000F931F93CF93DF93EC016A017B01772467
:1042C0007394EC89FD8981E090E00E8C02C0880F28
:1042D000991F0A94E2F7808360E874E88EE190E029
:1042E000A70196010E947B3989019A010150104073
:1042F00020403040369527951795079520E4822E6B
:1043000022E4922E2FE0A22EB12C14C07724EC8947
:10431000FD891082C501B401A70196010E947B3975
:1043200089019A0101501040204030403695279570
:104330001795079580E10030180710F0772031F7C6
:10434000E889F9891083EA89FB890083EE89FF896E
:10435000408121E030E0C9010A8C02C0880F991F1A
:104360000A94E2F7482B4083EE89FF894081C90116
:104370000B8C02C0880F991F0A94E2F7482B4083E8
:10438000EE89FF894081C9010C8C02C0880F991FFA
:104390000A94E2F7482B4083EE89FF8980810D8CD7
:1043A00002C0220F331F0A94E2F7209528232083AE
:1043B000DF91CF911F910F91FF90EF90DF90CF9001
:1043C000BF90AF909F908F907F9008951092250698
:1043D0001092240688EE93E0A0E0B0E080932606D9
:1043E00090932706A0932806B0932906E4E2F6E00E
:1043F00085EB93E09293829385E896E09587848796
:1044000081E496E09787868785EC90E0918B808B9E
:1044100084EC90E0938B828B80EC90E0958B848B86
:1044200081EC90E0978B868B86EC90E0918F808F6B
:1044300084E0828F83E0838F87E0848F85E0858F9F
:1044400081E0868F0895CF92DF92EF92FF920F93D3
:104450001F93CF93DF936C017B01EA0100E010E032
:104460000EC0D7016D917D01D601ED91FC910190B7
:10447000F081E02DC6010995080F191F219720979B
:1044800081F7C801DF91CF911F910F91FF90EF90BD
:10449000DF90CF900895DB010D900020E9F7AD018A
:1044A00041505040461B570BDC01ED91FC910280BE
:1044B000F381E02D09950895DC01ED91FC910190C7
:1044C000F081E02D099508950F931F93CF93DF930B
:1044D0008C016DE00E945C22EC01C8016AE00E9440
:1044E0005C228C0F9D1FDF91CF911F910F9108953A
:1044F0000F931F93CF93DF938C010E944B22EC010B
:10450000C8010E9464228C0F9D1FDF91CF911F91E3
:104510000F9108956F927F928F929F92AF92BF9268
:10452000CF92DF92EF92FF920F931F93CF93DF937F
:10453000CDB7DEB7A1970FB6F894DEBF0FBECDBFE3
:104540003C01E42ECB01F22E19A221E02F1510F030
:104550003AE0F32E21E2C22ED12CCC0EDD1E8F2CA0
:104560009924AA24BB2403C0E02E512FC9016E2D2B
:10457000752FA50194010E947B3989019A01F09E53
:10458000802D1124E81A8E2D0894C108D1088A3094
:1045900010F4805D01C0895CD6018C930115110572
:1045A0002105310509F7D6010D900020E9F7AD018D
:1045B000415050404C195D09D301ED91FC910280AE
:1045C000F381E02DC301B6010995A1960FB6F894C9
:1045D000DEBF0FBECDBFDF91CF911F910F91FF9036
:1045E000EF90DF90CF90BF90AF909F908F907F9093
:1045F0006F9008952115310549F4DC01ED91FC918E
:104600000190F081E02D642F099508950E948A227F
:104610000895CF92DF92EF92FF920F931F93CF9363
:10462000DF93EC016A017B012115310541F4E8813A
:10463000F9810190F081E02D642F09951AC02A308C
:104640003105A9F477FF12C06DE20E945C228C0153
:1046500044275527BA014C195D096E097F09CE011F
:104660002AE00E948A22800F911F03C02AE00E9444
:104670008A22DF91CF911F910F91FF90EF90DF90F1
:10468000CF9008950F931F93CF93DF938C019A01DE
:10469000CB01AC01662757FD6095762FC8010E94BB
:1046A0000923EC01C8010E9464228C0F9D1FDF9139
:1046B000CF911F910F9108950E94441F0E944704BB
:1046C000CBE0D1E20E9454072097E1F30E940B2136
:1046D000F9CF20914B0730914C0728173907B9F4CF
:1046E0009091C9068091CA069817A1F0E091C90679
:1046F000F0E0E553F94F80812091C90630E02F5F4B
:104700003F4F2F7730702093C90690E008958FEFC8
:104710009FEF08958FEF9FEF089520914B07309101
:104720004C072817390771F49091C9068091CA0681
:10473000981759F0E091C906F0E0E553F94F8081F0
:1047400090E008958FEF9FEF08958FEF9FEF08950A
:1047500020914B0730914C072817390739F48FB750
:10476000F8941092CA061092C9068FBF089520913E
:104770004B0730914C072817390771F48091CA060E
:104780002091C90690E080589F4F821B910960E8F4
:1047900070E00E946839089580E090E0089520E07C
:1047A00001972FEF8F3F9207D9F70895FC01809171
:1047B0004B0790914C078E179F0781F0838D8E7F5A
:1047C000838F8FB7F8941092CA061092C906F0939F
:1047D0004C07E0934B078FBF81E0089580E0089578
:1047E000EF92FF920F931F93CF93DF93EC018B8D8A
:1047F000EE85FF859D8581FF04C08081892329F492
:1048000048C08081892309F044C08B899C890E941B
:10481000CF2328E0E22EF12C01E010E08D899E8963
:104820000E94CF23EE85FF8580819D85892311F02D
:10483000102B03C0802F80951823000F0894E108E7
:10484000F108E114F10451F78F89988D0E94CF236C
:104850008B8D81FD10958091CA062091C90690E04C
:1048600001968F77907030E08217930779F0E0918E
:10487000CA06F0E0E553F94F10838091CA0690E034
:1048800001968F7790708093CA0603C08B8D8160EC
:104890008B8FDF91CF911F910F91FF90EF90089533
:1048A000FC01A189B2899089662329F42C91892F72
:1048B0008095822302C08C91892B8C930895DF927E
:1048C000EF92FF920F931F93CF93DF93EC01F62E9D
:1048D000898D9A8D009739F481E090E09B838A83DB
:1048E00080E090E047C0EFB6F8948B8D61E081FFE7
:1048F00060E0CE010E945024898D9A8D04960E941A
:10490000CF238B8D08E010E0DD24D39481FF15C008
:104910008D2D8F2119F0CE0160E002C0CE0161E043
:104920000E945024898D9A8D0E94CF23DD0C015066
:10493000104071F7CE0160E014C08D2D8F2119F069
:10494000CE0161E002C0CE0160E00E945024898D5A
:104950009A8D0E94CF23DD0C0150104071F7CE01DB
:1049600061E00E945024EFBE898D9A8D0E94CF2372
:1049700081E090E0DF91CF911F910F91FF90EF9038
:10498000DF90089580914B0790914C07009711F0AC
:104990000E94F02308951F920F920FB60F921124D8
:1049A0002F933F934F935F936F937F938F939F9337
:1049B000AF93BF93EF93FF930E94C224FF91EF91B7
:1049C000BF91AF919F918F917F916F915F914F9127
:1049D0003F912F910F900FBE0F901F9018951F922F
:1049E0000F920FB60F9211242F933F934F935F9323
:1049F0006F937F938F939F93AF93BF93EF93FF93A7
:104A00000E94C224FF91EF91BF91AF919F918F912E
:104A10007F916F915F914F913F912F910F900FBEBA
:104A20000F901F9018951F920F920FB60F9211249E
:104A30002F933F934F935F936F937F938F939F93A6
:104A4000AF93BF93EF93FF930E94C224FF91EF9126
:104A5000BF91AF919F918F917F916F915F914F9196
:104A60003F912F910F900FBE0F901F9018951F939D
:104A7000CF93DF93EC01162F862F61E00E94CF1FAA
:104A8000812F61E00E940320812F90E0FC01E35020
:104A9000FD4FE491E88BFC01EF5EFC4FE491F0E008
:104AA000EE0FFF1FE15DFC4F85919491898B9A8BEE
:104AB000DF91CF911F9108951F93CF93DF93EC0166
:104AC000162F862F60E00E94CF1F8B8D81FD04C0C2
:104AD000812F61E00E9403201C87812F90E0FC0160
:104AE000E350FD4FE491ED87FC01EF5EFC4FE49154
:104AF000F0E0EE0FFF1FEB5DFC4F859194918E87E8
:104B00009F87DF91CF911F9108951F93CF93DF93DC
:104B1000EC01162F1B821A8288EE93E0A0E0B0E031
:104B20008C839D83AE83BF8385EC93E099838883D8
:104B30001C8A1B8A1E8A1D8A188E1F8A1A8E198E3D
:104B40008B8D2170220F8C7F822B8B8FCE01642F57
:104B50000E943725CE01612F0E945C25DF91CF9105
:104B60001F910895CF92DF92EF92FF92CF93DF9340
:104B7000EC016A017B011A8E198E188E1F8A1E8A1B
:104B80001D8A1C8A1B8A20E030E0A901440F551FB2
:104B9000420F531F440F551F440F551FFA01ED5B81
:104BA000FC4F85919591A591B4918C159D05AE050D
:104BB000BF05E9F4FA01E95BFC4F859194918B8B79
:104BC0009C8BFA01E75BFC4F859194918D8B9E8BBA
:104BD000FA01E55BFC4F859194918F8B988F435B35
:104BE0005C4FFA0185919491898F9A8F06C02F5F4F
:104BF0003F4F2C30310509F0C8CF8F89988D009731
:104C000009F448C09C85963108F040C020916800A6
:104C1000983020F09E3020F082E003C084E001C094
:104C200081E0822B809368005C85583048F05E30CC
:104C300060F05631C8F1E0E0F0E0A0E0B0E009C07B
:104C4000EDE6F0E0ADE6B0E004C0EBE6F0E0ABE6A8
:104C5000B0E04C91583040F481E090E002C0880F01
:104C6000991F5A95E2F710C0252F30E05E3018F4F6
:104C70002850304002C02E50304081E090E002C009
:104C8000880F991F2A95E2F7842B8083898D9A8D4E
:104C90000E94CF23CE010E94D623DF91CF91FF90B7
:104CA000EF90DF90CF900895ECE6F0E0ACE6B0E056
:104CB000D0CFFC014485463150F5483028F04E30C5
:104CC00030F0ECE6F0E005C0EDE6F0E002C0EBE627
:104CD000F0E05081483040F481E090E002C0880F5D
:104CE000991F4A95E2F710C0242F30E04E3018F497
:104CF0002850304002C02E50304081E090E002C089
:104D0000880F991F2A95E2F780958523808308955F
:104D100025EC33E0FC01318320830E94592608955D
:104D2000CB010E944F360895CB01642F0E94573665
:104D30000895FC0175836483718760875783468378
:104D400053874287158A158614861786168621E0B2
:104D5000248B8FEF9FEF938B828B918B808B268B95
:104D600008952F923F924F925F926F927F928F920F
:104D70009F92AF92BF92CF92DF92EF92FF920F93EA
:104D80001F93CF93DF9300D000D0CDB7DEB72C01B7
:104D90007C836B836A0159011701C801841B950B41
:104DA00097FF03C0909581959F4F95014B815C8142
:104DB000241B350B37FF03C0309521953F4F41E051
:104DC000642E712C2817390714F066247724611497
:104DD000710459F09A2D8B2D5801092F182F9B81A2
:104DE0008C81DC82CB82C92ED82E8B819C81A81627
:104DF000B9065CF49C2D8D2D6801092F182F9B811D
:104E00008C81BC82AB82A92EB82ED501EB81FC81AE
:104E1000AE1BBF0BBA83A98348018C189D0897FE6F
:104E200004C0909481949108939489819A8162E05E
:104E300070E00E9468397B01C016D1061CF401E0C5
:104E400010E027C00FEF1FEF24C0D201ED91FC91BD
:104E500011970480F581E02DC2016114710421F0E5
:104E6000B6014B815C8103C06B817C81A6019101FD
:104E70000995E818F908F7FE06C0C00ED11EE981B1
:104E8000FA81EE0EFF1E2B813C812F5F3F4F3C834A
:104E90002B834B815C81A416B506BCF60F900F9056
:104EA0000F900F90DF91CF911F910F91FF90EF9096
:104EB000DF90CF90BF90AF909F908F907F906F903A
:104EC0005F904F903F902F9008956F927F928F92B6
:104ED0009F92AF92BF92CF92DF92EF92FF920F9389
:104EE0001F93CF93DF93EC016B015A013901480105
:104EF000E881F9810484F585E02D87010995E88131
:104F0000F981A501480D591D415050400484F58593
:104F1000E02DCE01B60193010995E881F981028463
:104F2000F385E02DCE01B601A50194010995E88134
:104F3000F981B601660D771D615070400284F385DA
:104F4000E02DCE01A50194010995DF91CF911F912C
:104F50000F91FF90EF90DF90CF90BF90AF909F9018
:104F60008F907F906F900895CF92DF92EF92FF9293
:104F70000F931F93CF93DF93EB01D9017801FC01CD
:104F800020813181A40FB51F1197F901C084D1840C
:104F90009E018D01F6010995DF91CF911F910F912F
:104FA000FF90EF90DF90CF900895EF92FF920F93D4
:104FB0001F93CF93DF93DA017801EC01E881F98147
:104FC000260F371F215030400084F185E02D8D01E0
:104FD0000995DF91CF911F910F91FF90EF90089568
:104FE0006F927F928F929F92AF92BF92CF92DF92F9
:104FF000EF92FF920F931F93CF93DF935C013A01DF
:1050000069014801EB01C60ED71E0DC0D501ED9117
:10501000FC910284F385E02DC501BE01A30194013A
:10502000870109952196CC15DD0584F3DF91CF9199
:105030001F910F91FF90EF90DF90CF90BF90AF90B6
:105040009F908F907F906F9008952F923F924F92F4
:105050005F926F927F928F929F92AF92BF92CF9208
:10506000DF92EF92FF920F931F93CF93DF93CDB711
:10507000DEB72F970FB6F894DEBF0FBECDBF5C0131
:105080005E834D83422F18870F83FA86E986DC0101
:1050900018968D919C911997681779070CF0B1C0FB
:1050A0001A968D919C911B97ED81FE81E817F90767
:1050B0000CF0A7C02C2D30E0C901880F991F880F74
:1050C000991F820F931F860F971F181619060CF051
:1050D00098C0C90113E0880F991F1A95E1F78E0F48
:1050E0009F1F181619060CF08CC0842F90E04C01FD
:1050F000880C991C880C991C880E991EC9821A82EA
:105100001B017C836B8330E02C2D353029F0F401BA
:10511000ED52FC4FE49101C0E0E0C22C3D866D8071
:105120007E802301DD243F872E872E2F30E03C87B1
:105130002B87E0FF1EC0D501ED91FC91BE85B130FB
:1051400051F40480F581E02DC5016B817C81A201C1
:105150002F81388524C00088F189E02DC5016C2D90
:105160007D85A3012E8530E0022F10E0EF80F884CA
:1051700025C0E985FA852F813885E217F307F9F014
:10518000D501ED91FC91BE85B13059F40480F581D3
:10519000E02DC5016B817C81A20129853A850995A5
:1051A0000EC00088F189E02DC5016C2D7D85A3011D
:1051B0002E8530E0022F10E0E984FA840995EB8512
:1051C000FC85F595E795D39429813A81620E731E8B
:1051D0000894411C511C38E0D31609F0A6CF3F8536
:1051E0002E853F5F89819A81280E391EAB81BC8153
:1051F0001196BC83AB830894811C911C363009F056
:1052000084CF2F960FB6F894DEBF0FBECDBFDF91CF
:10521000CF911F910F91FF90EF90DF90CF90BF90B3
:10522000AF909F908F907F906F905F904F903F9046
:105230002F900895CF92EF92FF920F931F93CF93E9
:10524000DF93EC01262F6A3061F42C8930E013E003
:10525000220F331F1A95E1F78E859F85820F931FCA
:105260003AC06D30E1F14C855D85EE85FF8508899A
:105270001989EA88FB88BA01AF01CC880E942528E9
:105280004C8950E09A01220F331F240F351F220F43
:10529000331F8C859D85280F391F3D872C878E896C
:1052A0008823E9F08AEF9FEF489FB001499F700D76
:1052B000589F700D112488859985680F791F621792
:1052C00073076CF483E0440F551F8A95E1F78E85D0
:1052D0009F85840F951F9F878E871D861C8681E082
:1052E00090E0DF91CF911F910F91FF90EF90CF90C1
:1052F0000895FC017587648757874687089566235C
:1053000009F461E0FC01648B0895FC01718B608BF2
:10531000738B628B0895FC01718B608B538B428B76
:105320000895FC0185898370858B0895FC01808533
:1053300091850895FC01828593850895CF92DF922F
:10534000EF92FF920F931F93CF93DF93EC017B01BA
:105350008A01690177FD64C00E949629E816F90662
:105360000CF05EC017FD5CC0CE010E949A290817A0
:1053700019070CF055C049C08C819D81801B910B91
:1053800087017C010894E108F10818C08C819D8197
:105390009C012E193F0979010894E108F1088E81DA
:1053A0009F819C01201B310B890106C08E819F814A
:1053B0008E199F0978018C0101501040C80168E0E6
:1053C00070E00E946839FB01F695FE2FEE27F795F5
:1053D000E795EE0DFF1DE355FE4F31E0C316D104F6
:1053E00041F402C0CC0CDD1C8A95E2F780818C2947
:1053F0000AC021E030E002C0220F331F8A95E2F795
:1054000020958081822380830BC0CE010E94912948
:10541000823009F4BBCF833049F2813079F6ACCFCA
:10542000DF91CF911F910F91FF90EF90DF90CF9080
:105430000895EF920F93FC011382128285ED93E0A1
:1054400091838083E48E038F228F418F608F0F9131
:10545000EF90089580E092E0EDEAF1E0DF019C0139
:105460001D9221503040E1F70895FC0188E090E062
:1054700030E8A78DB0A14C9126A1209524232C9330
:10548000432F4623A58DB68D25A1442321F04C91B1
:10549000422B4C9304C04C91209524232C93A78D30
:1054A000B0A12C9146A1242B2C933695019709F796
:1054B00008951F93CF93DF93EC01162F888D8F3FB4
:1054C000F1F0E9A1FAA180819FA1892B8083EBA152
:1054D000FCA1908188A5809589238083E9A1FAA108
:1054E00090818FA1809589238083CE010E94352AE7
:1054F000E9A1FAA180819FA1892B808316C06F89C1
:10550000772767FD70958EE497E00E94182D8EE452
:1055100097E060E00E94D42C8EE497E0612F0E9417
:10552000D42C8EE497E00E942E2DDF91CF911F9115
:105530000895662311F067EA01C066EA0E94592ABD
:1055400008950F931F93CF93DF93EC01162F042F31
:1055500060E870E040E250E00E9499260F8B888D51
:105560008F3F09F468C061E00E94CF1F898D61E020
:105570000E94CF1F8A8D61E00E94CF1F8C8D61E059
:105580000E94CF1F298D332727FD3095F901EF5E4B
:10559000FC4FE491F0E0EE0FFF1FE15DFC4F8591C1
:1055A00094918F8F98A323503D4FF90124912EA3FE
:1055B000288D332727FD3095F901EF5EFC4FE491EC
:1055C000F0E0EE0FFF1FE15DFC4F859194918D8F10
:1055D0009E8F23503D4FF90124912DA32C8D33270D
:1055E00027FD3095F901EF5EFC4FE491F0E0EE0FFE
:1055F000FF1FE15DFC4F8591949189A39AA32350ED
:105600003D4FF90124912FA32A8D332727FD309593
:10561000F901EF5EFC4FE491F0E0EE0FFF1FE15D5A
:10562000FC4F859194918BA39CA323503D4FF9018E
:10563000249128A704C08EE497E00E94032D8B8D4F
:1056400061E00E94CF1F8B8D61E00E94032061E02A
:1056500070E080E090E00E941B1F8B8D60E00E9454
:1056600003206AE070E080E090E00E941B1F8B8DB9
:1056700061E00E940320CE016EEA0E94592ACE0109
:1056800065ED0E94592ACE0160E80E94592ACE0198
:1056900068EA0E94592ACE016FE10E94592ACE0180
:1056A00063ED0E94592ACE0160E00E94592ACE0182
:1056B00060E40E94592ACE016DE80E94592ACE0169
:1056C000113011F460E101C064E10E94592ACE0159
:1056D00060E20E94592ACE0160E00E94592ACE0160
:1056E00061EA0E94592ACE0168EC0E94592ACE0133
:1056F0006AED0E94592ACE0162E00E94592ACE0129
:1057000061E80E94592ACE016FE80E94592ACE0111
:1057100069ED0E94592ACE01113011F462E201C0F4
:1057200061EF0E94592ACE016BED0E94592ACE01E9
:1057300060E40E94592ACE0164EA0E94592ACE01EF
:1057400066EA0E94592ACE016FEA0E94592ADF9127
:10575000CF911F910F910895BF92CF92DF92EF9258
:10576000FF920F931F93CF93DF938C0160E00E9411
:10577000592AC80160E10E94592AC80160E40E94C8
:10578000592AD80158968C9158978F3F09F443C0F5
:105790009196ED91FC919297808197969C91979725
:1057A000892B80839396ED91FC91949780819896B4
:1057B0009C919897892B80839196ED91FC9192977B
:1057C000908197968C918095892380839DEAE92E1C
:1057D00091E0F92EC0E0D0E0F70161917F01C801AE
:1057E0000E94352A2196F2E0C030DF07A9F7C0E019
:1057F000D2E0C80160E00E94352A2197D1F7D80194
:105800009196ED91FC919297808197969C919797B4
:10581000892B808364C0B090B8008CE08093B8007E
:10582000CC24DD24F8016789772767FD70958EE425
:1058300097E00E94182DE0914E07F0914F070190DC
:10584000F081E02D8EE497E060E40995EE24FF24DA
:10585000E601C355DE4FFE01EE0DFF1D8EE497E01D
:1058600060810E94D42C0894E11CF11CF0E1EF1639
:10587000F10489F780E190E0C80ED91E8EE497E02C
:105880000E942E2D90E0C91692E0D90659F6C0E28A
:10589000D0E0D80157966C91772767FD70958EE41C
:1058A00097E00E94182DE0914E07F0914F0701906C
:1058B000F081E02D8EE497E060E4099580E1E82E28
:1058C0008EE497E060E00E94D42CEA94C9F78EE45D
:1058D00097E00E942E2D2197E1F6B092B800DF915B
:1058E000CF911F910F91FF90EF90DF90CF90BF90DD
:1058F000089580917E0790E020917F07821B910997
:10590000089520917F0780917E07281750F4E22F99
:10591000F0E0E058F84F808190E02F5F20937F0700
:1059200008958FEF9FEF0895E0917F0780917E07A4
:10593000E81730F4F0E0E058F84F808190E00895E7
:105940008FEF9FEF08950895CF92DF92EF92FF922D
:105950000F931F93CF93DF936C01CB018A012091AA
:105960005A072223A1F07B01C0E0D0E00CC0D70190
:105970006D917D01D601ED91FC910190F081E02DBA
:10598000C60109952196C017D10789F703C0642F76
:105990000E94B92DC801DF91CF911F910F91FF9007
:1059A000EF90DF90CF900895CF93DF930F92CDB714
:1059B000DEB7698320915A072223D1F020915B073B
:1059C000203240F021E030E0FC013383228380E08C
:1059D00090E015C080915C07E82FF0E0E35AF84FA3
:1059E000998190838F5F80935C0780935B0705C0EC
:1059F000CE01019661E00E94B92D81E090E00F9008
:105A0000DF91CF91089510927F0710927E07109238
:105A10005C0710925B070E94492D089581E08093F6
:105A20005A0760937D0710925C0710925B070895F8
:105A30000E940E2D08950F93062F80917D076DE52E
:105A400077E040915B0721E00E94672D10925C0790
:105A500010925B0710925A070F91089561E00E941F
:105A60001B2D0895109251071092500788EE93E075
:105A7000A0E0B0E08093520790935307A09354079F
:105A8000B09355078BEE93E090934F0780934E07AA
:105A900008951092A90781E08093A7071092A607A6
:105AA00082E161E00E94032083E161E00E94032023
:105AB000E9EBF0E080818E7F808380818D7F808321
:105AC00080E28093B80085E48093BC0008950F9332
:105AD000413208F045C09091A9079923E1F792E07F
